:020000040800F2
:10000000409A00209D01000833160008A70100084F
:100010003116000895080008D119000800000000FA
:10002000000000000000000000000000351600087D
:10003000D108000800000000B3010008B501000865
:10004000B7010008B7010008B7010008B7010008B0
:10005000B7010008B7010008B7010008B7010008A0
:10006000B7010008B7010008B7010008B701000890
:10007000B7010008B7010008B7010008B701000880
:10008000B7010008B7010008B7010008B701000870
:10009000B7010008B7010008B7010008B701000860
:1000A000B7010008B7010008B7010008B701000850
:1000B000B7010008B7010008B7010008B701000840
:1000C000B7010008B7010008B7010008B701000830
:1000D000B7010008C5190008B7010008B7010008FA
:1000E000B7010008B7010008B7010008B701000810
:1000F000B7010008B7010008B7010008B701000800
:10010000B7010008B7010008B7010008B7010008EF
:10011000B7010008B7010008B7010008B7010008DF
:10012000B7010008B7010008B7010008B7010008CF
:10013000B7010008B7010008B7010008B7010008BF
:10014000B7010008B7010008B7010008B7010008AF
:10015000B7010008B7010008B7010008B70100089F
:10016000B7010008B7010008B7010008B70100088F
:10017000B7010008B7010008B7010008000000003F
:10018000B7010008B7010008DFF80CD000F0D6FA7C
:10019000004800479D680008409A002006488047B4
:1001A00006480047FEE7FEE7FEE7FEE7FEE7FEE75C
:1001B000FEE7FEE7FEE7FEE7BD160008890100083E
:1001C0002DE9F05F0546002092469B46884606468C
:1001D000814640241BE0284641464746224600F01F
:1001E000ADF853465A46C01A914110D311461846ED
:1001F000224600F016F82D1A67EB01084F462246FA
:100200000120002100F00DF817EB00094E41201EDF
:10021000A4F10104DFDC484631462A464346BDE8E6
:10022000F09F202A04DB203A00FA02F100207047F8
:100230009140C2F1200320FA03F319439040704724
:1002400040EA01039B0703D009E008C9121F08C058
:10025000042AFAD203E011F8013B00F8013B521ED8
:10026000F9D27047D2B201E000F8012B491EFBD24F
:1002700070470022F6E710B513460A4604461946B1
:10028000FFF7F0FF204610BD421C10F8011B0029AB
:10029000FBD1801A704730B504460020034600E0C9
:1002A0005B1C934203D2E05CCD5C401BF8D030BDB8
:1002B00030B505460020034600E05B1C934205D2A2
:1002C000EC5CC85C201A01D1002CF6D130BD30B4F2
:1002D000044696230800214604D0B62330BC0022F1
:1002E00000F045B820460021F8E700F0004230F069
:1002F00000400AD0C10D01F56071C0F3160042EA5A
:100300000151C20840071143704700200146704761
:1003100030B50B46014600202022012409E021FAD5
:1003200002F59D4205D303FA02F5491B04FA02F5D2
:100330002844151EA2F10102F1DC30BD202A04DBA5
:10034000203A21FA02F00021704721FA02F3D0404E
:10035000C2F1200291400843194670470029A8BF06
:100360007047401C490008BF20F00100704710B4DE
:10037000B0FA80FC00FA0CF050EA010404BF10BC93
:10038000704749B1CCF1200421FA04F411FA0CF1C0
:1003900018BF012121430843A3EB0C01CB1D4FEAF9
:1003A00000614FEA102042BF002010BC704700EBF4
:1003B000C35010440029A4BF10BC7047401C490022
:1003C00008BF20F0010010BC70472DE9FE4F8046A9
:1003D00081EA0300C00F0C46009021F0004123F099
:1003E0000045B8EB0200A94105D24046214690469F
:1003F0001C460B46024623F00040104347D0270D11
:10040000C7F30A00C3F30A510290401A0190402832
:100410006BDAC3F3130040F4801B0098924620B1BE
:100420000023D2EB030A63EB0B0B01985946C0F192
:1004300040025046FFF7F5FE06460D465046594627
:10044000019A00F08DF910EB08006141002487EA61
:10045000115284EAE7731A4340D0009A62B3019ABA
:10046000012A4FEA075215DC001B61EB02014FF035
:10047000004202EA0752CDE90042001C41F580111A
:1004800032462B4600F08DF903B0BDE8F08F4046B0
:100490002146F9E7001B61EB0201001C41F58013C6
:1004A00000185B412018A2F5001747EB030140EA52
:1004B000D570B6196D4111E06D084FEA360645EA70
:1004C000C0754FEA0752001B61EB0201001C41F5A9
:1004D000801149084FEA30000019514132462B463D
:1004E00003B0BDE8F04F00F04DB900980122400084
:1004F0000023D0EB020263EBE073009821464FEA41
:10050000E074B8EB000061EB0401E9E783F000431D
:100510005BE781F0004158E72DE9FE4F81EA0304D3
:1005200004F0004421F0004100944FF0000B23F050
:10053000004350EA01045ED052EA03045BD0C3F3E7
:100540000A54C1F30A552C44A4F2F3340194A0FBDD
:100550000254C1F3130141F48011C3F3130343F4B4
:10056000801301FB024400FB034E840A970A44EA0D
:10057000815447EA8357A4FB076802958D0A05FB5F
:1005800007854FEA932C04FB0C542705029D4FEA84
:10059000065847EA1637B5EB08056EEB070C870ED1
:1005A000920E47EA811742EA8312A7FB0201B6EBDB
:1005B0000B0164EB00042B0D43EA0C335E1844EB93
:1005C0001C50DA465146E7FB0201C5F313044FEA1B
:1005D0000B3343EA14534FEA0432019C43EA060307
:1005E000A4F10C040294009CCDE900B400F0D9F809
:1005F00003B0BDE8F08F00200146F9E72DE9F04D8A
:1006000081EA030404F0004B21F0004514464FF04A
:10061000000A23F0004150EA050220D054EA01020A
:100620001DD0C5F30A570246C5F31303C1F31300E7
:10063000C1F30A5640F4801543F48013A7EB060873
:10064000101BD64608F2FD3873EB050002D308F103
:10065000010801E092185B41B8F1000F03DA0020B5
:100660000146BDE8F08D00204FF480110646844617
:100670000EE0171B73EB050705D3121B63EB050395
:1006800006434CEA010C49084FEA300092185B41DE
:1006900050EA0107EDD152EA030012D082EA0400C9
:1006A00083EA0501084305D0101BAB4106D20122A5
:1006B000002306E000224FF0004302E06FF0010249
:1006C00053101AEB06004CEB085110EB0A0041EBFB
:1006D0000B01BDE8F04D00F055B8C1F30A52C1F36B
:1006E000130140F2FF3341F480119A4202DA0020F4
:1006F0000146704740F233439A42A2F2334202DC91
:100700005242FFF71BBEFFF78CBD000030B5041E40
:1007100071F1000404DB4FF00044404264EB01013E
:10072000141E73F1000405DB1C464FF000435242D7
:1007300063EB0403994208BF904230BD064C074D5D
:1007400006E0E06840F0010394E8070098471034A1
:10075000AC42F6D3FFF71CFD1844060838440608DF
:10076000202A06DBCB17203A41FA02F043EAE07375
:1007700006E041FA02F3D040C2F120029140084362
:100780001946704710B5141E73F1000408DA401CB6
:1007900041F1000192185B411A4301D120F00100A0
:1007A00010BD2DE9F04D92469B4611B1B1FA81F290
:1007B00002E0B0FA80F220329046FFF732FD0446A4
:1007C0000F4640EA0A0041EA0B0153465A460843E5
:1007D00013D0114653EA010019D0C8F14002504627
:1007E000FFF7ACFD05460E46504659464246FFF718
:1007F00018FD084305D0012004E020463946BDE835
:10080000F08D0020054346EAE0762C4337430A98F2
:100810006305E40AA0EB08000022FD0A44EA4754FD
:100820000A3002D500200146E9E7010510196941A7
:10083000DDE9084500196941BDE8F04DA2E770B552
:100840008C1810F8015B15F0070301D110F8013B7B
:100850002A1106D110F8012B03E010F8016B01F802
:10086000016B5B1EF9D12B0705D40023521E0DD45A
:1008700001F8013BFAE710F8013BCB1A921C03E0A8
:1008800013F8015B01F8015B521EF9D5A142D8D3E0
:10089000002070BDFEE700000948016821F0010159
:1008A000016008480121816081680029FCD1064966
:1008B000016000680549884200D0FEE770470000EB
:1008C000002000E000300240C2A507F4CDB5E8B535
:1008D0007047704710B5040002D0607910B106E08F
:1008E000012010BD00202071204600F005F80120F5
:1008F0006071002010BD000008B5006806498842FC
:1009000008D10648016841F480510160006800F494
:100910008050009008BD0000003002403038024096
:1009200090F83510022903D08021416501207047DD
:10093000052180F835100068016821F0010101608F
:100940000020704770B5044600F002F90546601CAF
:1009500002D004480078044400F0FAF8401BA0429A
:10096000FAD370BDBC0800202DE9F84F00224FF0EB
:10097000010803254FF00F0E0B6808FA02F423401C
:10098000A3426ED14E68012E05D0022E03D0112E47
:1009900001D0122E12D186684FEA420C05FA0CF7EC
:1009A000BE43CF6807FA0CF7374387604668A64313
:1009B0000C79C4F30014944034434460C668570073
:1009C00005FA07FC8C6826EA0C06BC403443C46078
:1009D0004C68022C01D0122C13D1D40800EB8404F3
:1009E000A346D4F8209054074FEAD46A0EFA0AF6C8
:1009F00029EA06090E6906FA0AF646EA0906CBF85C
:100A0000206006680C7926EA0C0604F00304BC405A
:100A1000344304604C68E40065D5364C266846F4DF
:100A200080462660246822F0030604F48044009483
:100A3000314C3444A446D4F808489607370F0EFAD0
:100A400007F6B4432D4EB04201D1002624E02C4ECF
:100A5000B04201D101261FE02A4EB04202D1022647
:100A60001AE040E0284EB04201D1032614E0274EA0
:100A7000B04201D104260FE0254EB04201D1052637
:100A80000AE0244EB04201D1062605E0224EB042D3
:100A900001D1072600E00826BE402643CCF80868AE
:100AA0001E4E34684F689C43FF0300D51C433460DE
:100AB0001A4C241D26684F689E43BF0300D51E4371
:100AC0002660164E083634684F689C43FF0200D5F6
:100AD0001C433460114E0C3634684F689C43BF028F
:100AE00000D51C433460521C102AFFF445AFBDE80A
:100AF000F88F0000443802400030014000000240FE
:100B00000004024000080240000C024000100240B5
:100B10000014024000180240001C0240003C01404A
:100B20000AB1816170470904FBE7000002480068D0
:100B3000C0F30B0070470000002004E0004870473D
:100B40000007070101480068000C7047002004E01E
:100B50000148806870470000BC0800200B4810B5B1
:100B6000016841F400710160016841F48061016035
:100B7000016841F480710160032000F06FF80020EB
:100B800000F006F800F024F8002010BD003C024000
:100B900070B50D4D04464FF47A712878B1FBF0F032
:100BA0000A490968B1FBF0F000F008FB48B9102CC5
:100BB00007D200222146501E00F030F800206C6061
:100BC00070BD012070BD0000BC080020B8080020E6
:100BD0000A4808B5016841F480410160006800F4EA
:100BE000804000900548001F016841F0805101607D
:100BF000006800F08050009008BD000044380240BA
:100C0000002809DB00F01F0201219140400980000B
:100C100000F1E020C0F8001170470000F0B40E4B66
:100C20001B680C46C3F30223C3F10705042D00D94A
:100C30000425191D072901D2002300E0DB1E01262F
:100C400006FA05F1491E214099409E40761E164045
:100C50003143F0BC00F0E1BE0CED00E0064900F0CD
:100C6000070208684FF6FF03184040EA0220034AD3
:100C700010430860704700000CED00E00000FA052A
:100C80002DE9F0470E46050065D0DFF81481D8F84D
:100C90000000F7B200F00F00B04207D288F80070F1
:100CA000D8F8000000F00F00B04254D128683D4C45
:100CB000810712D5400703D5206840F4E05020603A
:100CC0002878000703D5206840F460402060206841
:100CD000A96820F0F000084320602878C0072DD0D4
:100CE000304968680839012812D0022813D0032837
:100CF00011D00968890700292DDA216821F0030144
:100D000001432160FFF724FF814641F2883A0EE05B
:100D100009688903EFE709688901ECE7FFF718FF25
:100D2000A0EB0901514502D90320BDE8F0872068F6
:100D3000696800F00C00B0EB810FEFD1D8F800101B
:100D4000404601F00F01B14207D90770006800F07A
:100D50000F00B04201D00120E7E72878400705D511
:100D60002068E96820F4E0500843206028780007F4
:100D700006D52068296920F4604040EAC10020605F
:100D800000F03EF82168084AC1F30311515CC840E5
:100D90000649086006480068FFF7FAFE0020C4E72D
:100DA000003C024008380240AC3D0608B80800206C
:100DB000C00800200148006870470000B808002003
:100DC0000448054900680968044AC1F38221515C5E
:100DD000C8407047B808002008380240BC3D0608EB
:100DE0000448054900680968044AC1F34231515C6E
:100DF000C8407047B808002008380240BC3D0608CB
:100E0000154810B5006810F00C02144813D04110BA
:100E1000042A0FD0082A0ED10F4C241F2268236801
:100E200002F03F025B0207D52068C0F38810A0FBE8
:100E3000010106E0084610BD2168C1F38811A1FB3D
:100E400000010023FFF7BCF92168C1F30141491CEF
:100E50004900B0FBF1F010BD083802400024F40056
:100E60002DE9F84F040076D02078DFF838A3CE4D76
:100E7000C00749D0DAF800105046C1F381010129BA
:100E800008D00068C0F3810002280AD1281D00683C
:100E9000400206D52868800336D560680028E2D075
:100EA00032E06068B0F5803F10D0B0F5A02F286820
:100EB00010D020F480302860286820F4802028603A
:100EC0006068A0B1FFF744FE06460CE0286840F4D5
:100ED0008030F4E740F480202860F7E7FFF738FE21
:100EE000801B642873D828688003F7D50CE0FFF7CF
:100EF0002FFE064605E000BFFFF72AFE801B642890
:100F0000F0D828688003F7D42078DFF8A082800723
:100F10004FF000093ED5DAF80010504611F00C0FE2
:100F200009D00068C0F3810002280BD19D48001F42
:100F30000068400206D42868800715D5E0680128BB
:100F400009D111E0E068B8B10120C8F80000FFF74E
:100F5000FFFD064605E020E1FFF7FAFD801B0228B1
:100F6000C0D828688007F7D52868216920F0F800E4
:100F700040EAC10028600DE0C8F80090FFF7E8FDE6
:100F8000064604E0FFF7E4FD801B02281FD828680E
:100F90008007F7D42078000722D5824E8448616903
:100FA0006C3671B101210160FFF7D2FD074604E004
:100FB000FFF7CEFDC01B022809D830688007F7D59F
:100FC0000EE0C0F80090FFF7C3FD074605E082E0A1
:100FD000FFF7BEFDC01B02287DD830688007F7D41C
:100FE0002078400768D5DFF8BCB100270BF1380B3B
:100FF000DBF80000C0000BD4DBF8001041F080519A
:10100000CBF80010DBF80000012700F080500090C2
:10101000684E3068C00510D4306840F4807030608D
:10102000FFF796FD009005E0FFF792FD0099401A4A
:10103000022850D83068C005F6D55A4EA0686836E8
:1010400001280FD00528306810D020F00100306052
:10105000306820F004003060A068B8B1FFF778FD78
:1010600000900FE0306840F00100F4E740F0040029
:101070003060F7E7FFF76CFD0099411A41F28830C4
:10108000814266D830688007F4D50EE0FFF760FD36
:10109000009007E0FFF75CFD0099411A41F28830AB
:1010A000814256D830688007F4D42FB1DBF80010A5
:1010B00021F08051CBF80010A069D0B3DAF80020FD
:1010C0005146C2F38102022A4AD00228484607D07C
:1010D000C8F8600000E03CE0FFF73AFD04463BE062
:1010E0004746C8F86000FFF733FD064605E000BF3D
:1010F000FFF72EFD801B02282BD828688001F7D42B
:10110000D4E907010843A16A2B4A490802EB0141CF
:10111000626A41EA8211084394F82C1040EA0161A6
:101120002048001F016001203866FFF711FD0446CA
:1011300005E034E0FFF70CFD001B022809D8286801
:101140008001F7D52BE000BFFFF702FD001B02284E
:1011500002D90320BDE8F88F28688001F4D41EE08E
:101160000128F7D00868E26900F48001914214D1A7
:10117000226A00F03F0191420FD147F6C071626AC6
:101180000140914209D1A26A00F44031914204D158
:10119000E16A00F07060884201D00120DAE70020A7
:1011A000D8E70000083802400038024000004742FB
:1011B000800E4742007000400000FFFF10B5401E47
:1011C000B0F1807F01D3012010BD4FF0E0246061B9
:1011D0000F21601700F021FC0020A0610720206192
:1011E000002010BD7047000070B50268044610680A
:1011F000D168536910F00F0F52D003F0010501F4CC
:1012000090762E435FD0C20705D0CA0503D5E26BA6
:1012100042F00102E263420705D5DA0703D0E26B30
:1012200042F00202E263820705D5DA0703D0E26BDF
:1012300042F00402E263020707D501F020022A43CC
:1012400003D0E26B42F00802E263E26B002A33D083
:10125000800604D5880602D5204600F06FFA206883
:101260004069E16BC0F38010090700D428B3204621
:1012700000F056FA2068416949061AD5416921F003
:1012800040014161606BA0B11B490165606BFFF7D4
:1012900047FB002810D0606B016DBDE87040084727
:1012A000830610D58B060ED52046BDE8704000F0B1
:1012B00045BA2046FFF796FF70BD2046FFF792FF24
:1012C0000020E06370BD030606D50B0604D520465A
:1012D000BDE8704000F012BB4006F3D54806F1D5DA
:1012E000D168204621F04001D160202184F83910D6
:1012F00000F031F970BD00001117000870B504004E
:1013000004D094F83900002510B106E0012070BD2A
:1013100084F83850204600F023F8242084F839005F
:101320002068C16821F40051C160204600F052FAE3
:101330002068016921F4904101612068416921F030
:101340002A0141612068C16841F40051C160E56330
:10135000202084F8390084F83A00002070BD000095
:1013600010B586B0044614216846FEF782FF18497E
:101370002068884229D11748016841F010010160B6
:10138000006800F01000059012481438016841F020
:10139000010101600068694600F0010005904FF40A
:1013A000C060009002200190012002900320039071
:1013B000072004900848FFF7D7FA0022114625209D
:1013C000FFF72CFC2520FFF71BFC06B010BD00002A
:1013D0000010014044380240000002402DE9F8436B
:1013E000044690F83A00994616460D46202852D1F8
:1013F000BDB1B6B194F8380001284CD0012084F872
:1014000038000027E763222084F83A002C34FFF7E5
:101410009FFB24F8026B804624F80A6B04F83879A5
:1014200031E00120BDE8F883E08D401EE085A06832
:101430004346B0F5805F4FF000024FF02001204698
:10144000CDF8009004D000F08AFA98B10320E9E7C3
:1014500000F085FA0028F9D120690028206840684A
:1014600003D0C1B225F8011B0DE0C0F3080125F837
:10147000021B08E0206900282068406801D000F0C5
:101480007F0005F8010BE08D0028CDD1202084F8E5
:101490003A000020C6E70220C4E770472DE9F84370
:1014A000044690F839001F4616460D46202850D1B4
:1014B000B5B1AEB194F8380001284AD0012084F8C3
:1014C00038004FF00008C4F83C80212084F839002F
:1014D000FFF73EFBA6848146E68484F8388026E048
:1014E0000120BDE8F883E08C401EE084A0684B46F4
:1014F000B0F5805F4FF000024FF08001204600976A
:1015000003D000F02CFAE8B90DE000F028FAC8B9D1
:1015100028882168C0F308004860206908B16D1C64
:1015200005E0AD1C03E0216815F8010B4860E08C74
:101530000028D8D14B46002240212046009700F0D9
:101540000EFA08B10320CCE7202084F839000020EF
:10155000C7E70220C5E77047074910B5054808608E
:101560000846FFF7B7F9002803D0BDE81040FFF7A1
:10157000B0B910BD00300240B008002070B586B090
:1015800014216846FEF775FE16480024016841F0F4
:1015900080010160016801F080010591016841F05E
:1015A00001010160016801F001010591016841F04C
:1015B0004001016000680C4E00F040004FF40075DF
:1015C0000590002229463046FFF7AAFA012000952F
:1015D000CDE90104694630460394FFF7C5F906B02A
:1015E00070BD000030380240001802400C4810B5B1
:1015F0000A4901600B494160002181600C22C160F1
:10160000C0E904128161C161FFF778FE002803D0B0
:10161000BDE81040FFF75DB910BD000000100140AB
:10162000D809002040420F0002F0D0BD02F0EABD10
:10163000FEE770477047000030B593B03021684630
:10164000FEF717FE14210CA8FEF713FE194800251B
:10165000016841F080510160006800F080501190F5
:101660001548016841F4804101600068022400F4DB
:101670008040119001200390102004900094069463
:101680000820CDE90750A820CDE9090404200B90DB
:101690006846FFF7E5FB0CA90F2081E831004FF405
:1016A000A0500F90E002109005210CA8FFF7E8FA77
:1016B00013B030BD4038024000700040104801684F
:1016C00041F4700101600F48016841F001010160BF
:1016D0000C4A00210832116002680B4B1A4002606C
:1016E000031D0A4A1A60026822F48022026005483B
:1016F0000C300160024958068039086070470000CC
:1017000088ED00E000380240FFFFF6FE10300024B4
:1017100010B5806B0021C185C184FFF763FD10BD4A
:101720000168CA6822F49072CA6001684A6922F0AE
:1017300001024A61202180F83A10704710B590F8F4
:101740003A10222901D0022010BD8168B1F5805FD6
:1017500011D00169002901681FD0496801F07F0399
:10176000816A4A1C82620B70C18D491E0904090CF2
:10177000C18518D02BE00269816A002A026852688C
:1017800005D0D2B20A80816A491C8162ECE7C2F3BB
:1017900008020A80816A891CF7E74A68816A4B1C43
:1017A00083620A70E0E70168CA6822F02002CA601A
:1017B0000168CA6822F48072CA6001684A6922F02E
:1017C00001024A61202180F83A10FFF766FE0020EE
:1017D00010BD00002DE9F041044600680169E2688F
:1017E00021F44051114301612169A068E269084375
:1017F0006169114308432168CA6849F20C639A433E
:101800000243CA6020684169A26921F44071114312
:101810004161E069192764253226B0F5004F354A49
:10182000354920684FF0000806D0884201D0904228
:1018300036D1FFF7D5FA35E0884201D0904202D187
:10184000FFF7CEFA01E0FFF7BBFA61684A18A0FB88
:10185000070148EB0803FEF7B3FC0146B0FBF5F0C7
:101860000201B1FBF5F06FF01803584301EB800063
:1018700006EBC000B0FBF5F000F0F80002EB400210
:10188000B1FBF5F0584301EB800006EBC000B0FB64
:10189000F5F000F00700216810448860BDE8F08191
:1018A000FFF78EFA61688B0F8A00A0FB0701FEF735
:1018B00087FC0146B0FBF5F06FF01802504301EBD6
:1018C000800006EB0010B0FBF5F000F0F002B1FB79
:1018D000F5F002EB0012B1FBF5F06FF0180358437E
:1018E00001EB800006EB0010B0FBF5F000F00F00FC
:1018F000D1E70000001401400010014090F83910B9
:10190000212901D0022070478168B1F5805F016A0A
:101910000BD04A1C0262026809785160C18C491ED2
:101920000904090CC1840ED017E009880268C1F3CC
:101930000801516001690029016A02D0491C016255
:10194000ECE7891CFBE70168CA6822F08002CA60E4
:101950000068C16841F04001C160002070472DE976
:10196000F041984617460E460446069D1DE0681C49
:101970001BD02DB1FFF7ECF8A0EB0800A84214D95A
:101980002068C16821F4D071C1602068416921F0EC
:1019900001014161202084F8390084F83A000020D8
:1019A00084F838000320BDE8F0812068006836EA3A
:1019B000000004D00020B842D9D00020F3E7012075
:1019C000F9E700000148FFF70FBC0000D80900202C
:1019D000FEE700000FB4054B10B503A9044A0298B6
:1019E00001F05CF810BC5DF814FB0000D165000844
:1019F000200900204100080218BF04200A0E18BF69
:101A000040F001004FF07F4232EA010108BF40F090
:101A10000200012808BF052070470907090E0028A9
:101A200004DB00F1E02080F80014704700F00F00A4
:101A300000F1E02080F8141D7047000030B528B197
:101A4000144C031F002021680A4605E0084630BDFB
:101A50009A4203D810465268002AF9D1002800D0D3
:101A600041680BD00468A3EB0005A54204D11B68B4
:101A70001C440346046002E0436000E023603AB186
:101A80001C68D51AA54203D115682C441C60526805
:101A90005A6030BD2409002010B510EE104A4FF0F6
:101AA00019406849002200EB44002DED028B88426A
:101AB00057D8DFED650A14F0004F60EE200A14BF1E
:101AC000BEEE001AB6EE001A71EE200AFDEEE00A34
:101AD00010EE900A00EE900AF8EEE00A9FED5B1A15
:101AE00000EEC10A9FED5A1A00EEC10ADFED590A55
:101AF0009FED591A00EE201ADFED580A40EE010A58
:101B00009FED571A574B00F0030100EE201A21EE0B
:101B1000000A7B4403EB8103D3ED000A524B7B4464
:101B200003EB810393ED001A504B41EE000A7B4416
:101B300003EB8101801091ED000A70EE800AEABB90
:101B400000EE100AB8EEC01ADFED491A9FED490AFF
:101B5000BDEC028B01EE210ABCEEC00A20EE200A89
:101B600010BD4FF0FF40A0431BD04FF0CE40B0EB74
:101B7000440F82BFB7EE000ABDEC028B10BD3E4899
:101B8000B0EB440F28BF012293D2022000F0C4F82A
:101B900014F0004F15D0BDEC028BBDE8104000F0F2
:101BA000A3B814F5000F02BF9FED340ABDEC028B01
:101BB00010BDBDEC028BBDE8104000E007E000F076
:101BC00087B8BDEC028BBDE8104000F085B800EB93
:101BD000D07359104FF07E5202EBC15100EE101A33
:101BE000A0EB630002EBC05060EE200A00EE100A8A
:101BF00020EE208A18EE100A88B118EE100AB0F113
:101C0000FF4F15D018EE100AFFF7F4FE042808BFA6
:101C100000F06AF8B0EE480ABDEC028B10BD02205D
:101C200000F07AF8BDEC028BBDE8104000F05CB823
:101C3000022000F071F8BDEC028BBDE8104000F00E
:101C40004BB800000000501E3BAAB8400070313E67
:101C5000F4FD053712BB2A3D12BB2A3EFFFFFF3EB3
:101C6000FFFF7F3FEA270600EE270600BE2706009B
:101C70000000004B00007E4E0000A0850000000028
:101C80002DE9F04782460F4C10480D4E0E4F001BB9
:101C90004FF0000820F007054FF00109002211461F
:101CA000504604F0C5FC002802D1306810B1002075
:101CB000BDE8F0873C60C4E90058C6F80090EDE745
:101CC00028090020447200202409002040920020AE
:101CD00030EE000A704700009FED020A20EE000A75
:101CE00070470000000000709FED020A20EE000A1D
:101CF000704700000000001002E008C8121F08C171
:101D0000002AFAD170477047002001E001C1121F7C
:101D1000002AFBD1704700000149086070470000AD
:101D20002C0900202DE9F05F00278A4604463E4634
:101D3000B94637E0A06806EB46024168806801EBCF
:101D4000C20500EBC60BD8F81800006802F024FBAF
:101D500028600120A880D8F80C008089E880D8F895
:101D60000C0000892881D8F80C004068E860D8F899
:101D70001800806828615FEA0B0009D0C0F8009065
:101D8000D8F80010416029B1498819B1012102E059
:101D9000484603E00021016001B900207F1CBFB26A
:101DA000761C68610CB1208800E00020B04206D9A2
:101DB000606820B150F826005FEA0008BAD11FB170
:101DC000A0684068CAF800003846BDE8F09F006887
:101DD000814301D000207047012070472DE9F04F6A
:101DE00007462DED028B95B080688468217AC9433F
:101DF00041F3C01101F1010B79690A880AB14E68FB
:101E000000E00026012A02D94D680C3500E00025CB
:101E1000C18A0391B0F8149000210191006DB8427D
:101E200007D100206061E06918B94946204600F0FA
:101E3000E1FA206A6269436902EB420103EBC10ADD
:101E4000C1691291006A0490606AC2EBC20100EBA2
:101E5000C1080398401CAAF80400AAF80690E1699A
:101E6000494503D108F12C0003F041FCB9686068D2
:101E7000BBF1000F8860D8F8040040F00100386121
:101E800031D0002021E080694FF08041FFF79FFFB3
:101E9000C8B90998806903C802F05EFA0246019841
:101EA000DAF8101000EB4003102000EBC3000958D3
:101EB000039800FB0210099989698968FEF7C0F947
:101EC0000198401C019009F1010081460EB1308853
:101ED00000E00020484506D9706820B150F829007C
:101EE00009900028CFD19FED988AE06AF0B31822BC
:101EF000514609A8FEF7A4F912980D9000200E9003
:101F0000ADF8320001901CE080694FF08041FFF78E
:101F10005EFFA0B907980D99019A80690123806836
:101F20000090019800EB400001EBC000049901EB28
:101F3000C201079A00F084F90198401C019009F150
:101F4000010081460EB1308800E00020484506D9E6
:101F5000706820B150F8290007900028D4D198ED7E
:101F60000D0AB8EE400A20EE080A00E006E08DED0A
:101F70000B0AD4E90B30002209A99847388802F0EF
:101F8000FDFE002808F12C00064605D003F0B6FB44
:101F900039693846884701E003F0B0FB304603F06A
:101FA000B7FBBBF1000F30D04FF000094E461FE0E9
:101FB0004FF08041DBF81800FFF709FFB8B9DBF8F4
:101FC000180003C802F0C8F9024609EB49031020C3
:101FD000DAF8141000EBC3000958039800FB021054
:101FE000DBF818108968FEF72BF909F10109761C56
:101FF0000DB1288800E00020B04206D9686820B101
:1020000050F826005FEA000BD2D1E06AF0B3182244
:10201000514608A8FEF714F90020ADF82C000C90EA
:1020200012984FF000094E460D9019E04FF0804194
:10203000DAF81800FFF7CBFE88B9DAF818000D9926
:1020400001238068009009EB490001EBC00004996E
:10205000524601EBC90100F0F3F809F10109761CC1
:102060000DB1288800E00020B04206D9686820B190
:1020700050F826005FEA000AD8D198ED0D0AB8EEB4
:10208000400A20EE080A8DED0A0A00E004E0D4E9D7
:102090000B30012208A99847B8688460D8F8080076
:1020A00040F001003861F868B84200D0F0BBE16848
:1020B000491CE160E069401EE0613CD1206A227A5F
:1020C0009FED220A8368D243C91A816042F3C0128D
:1020D000002180ED040A521C2AE000BF636AC1EBB4
:1020E000C10503EBC503082593ED0D0A01EB410380
:1020F0004669B8EE400A05EBC305354420EE080AF0
:1021000085ED000AD0ED040A456930EE200A80ED25
:10211000040A4AB9142707EBC3070026EE5110251D
:10212000476905EBC303FE50491C00E003E089B298
:10213000A3698B42D2D86069401C606115B0BDECC8
:10214000028BBDE8F08F00006F12833A00000000A0
:102150002DE9F84F4FF0000A856838495746C5F811
:1021600034A0C5F838A0066DD146D04641F0010B29
:10217000002E55D0696ACAEBCA0011EBC0040AF1FF
:10218000010AC4F808B00DD071682160306940F0D0
:1021900001014BF00100616030617069018819B183
:1021A000406802E0002015E0002004F10C0100F07E
:1021B000C1F9009070690188012902D940680C308A
:1021C00000E0002004F11C0100F0B4F90099814204
:1021D00000D90846B84200D83846C4F81090E168E3
:1021E000C4F8208089440746E169686BA061A86B48
:1021F000A0628844686B616908446863A86B616A7F
:102200000844A863308802F0D3FD014604F12C0095
:1022100003F052FAF068B04202D008B10646A9E7CE
:10222000EF63686BC01C20F003006863A86BC01CE0
:1022300020F00300A863BDE8F88F0000DD1D000852
:102240002DE9F041054690691F4616460C46DDF81B
:102250001880006802F0A0F82860AF80F0688089DC
:10226000E880F06800892881F0684068C5E90308C3
:1022700000205CB120603068606018B1408808B10F
:10228000012000E00020206000B120466861BDE828
:10229000F08110B5826A1AB1006B9047012010BD21
:1022A000002010BD2DE9F04F4B69D0E907A81C882C
:1022B0008FB00CB15F6800E00027012C02D95E6886
:1022C0000C3600E00026037A02EB4205D8F81440F1
:1022D000406A04EBC504C2EBC20200EBC2050888E9
:1022E0002080DB43488843F3C01360809FED400AA1
:1022F0005B1C84ED020AA88980B2A081A98BE181D0
:1023000018D0D8F824102A6900EB400001EB4211E4
:102310002161D8F828202B6A01EBC00002EB4312A0
:102320006261D8F82C30D5F818C001900AFB0C3B3C
:1023300000201DE00020606120610FB0BDE8F08F3B
:10234000CDF800B0216909EB490001EBC00001990B
:102350001FFA8AF301EBC901069AFFF771FF06988D
:10236000806903C801F0F8FF0AFB00BB09F1010016
:1023700081460FB1398800E00021494506D97868C7
:1023800020B150F8290006900028D9D1D8F8301093
:10239000AA6A60690AFB0217E189002501EB410185
:1023A00000EBC10814E00097606905EB450100EB04
:1023B000C1001FFA8AF308EBC5014A46FFF740FF48
:1023C000D9F8180003C801F0C7FF0AFB00776D1C9D
:1023D0000EB1308800E00020A842AED97068002815
:1023E000ABD050F825005FEA0009DCD1A5E700007A
:1023F000000000002DE9FC5F0546007A8A46C043D4
:1024000040F3C010002200F1010913461046AC69E8
:102410000BE000BF696AC0EBC00601EBC601401CBF
:10242000CE68C96932440B4480B28442F2D850016C
:102430000090580101906A6B0098AB6B0AFB020296
:10244000019804EB44010AFB03004FEAC108E96B61
:10245000D21C4B0108F138011944C91CC01C21F0E1
:10246000030722F0030B20F00300B9F1000F03D0A3
:1024700007EB0B010E1800E03E462C6A4CB12146DA
:102480002846FFF706FF606BB04208D2204603F0F3
:10249000D5F8304603F0C7F8041E44D0666304F153
:1024A0003800A06104EB08003830E061E96B01EB13
:1024B000410100EBC10020620020B9F1000F0BD0F8
:1024C000E21902EB0B01C4E90921009B1A44E26204
:1024D000019A1144216303E0A06260622063E0621C
:1024E000C5E907A4114B296900261A682260521C0D
:1024F0001A606060E868A060A8699FED0D0AE0605E
:1025000084ED040AA06960610C6D5CB13246761CF2
:1025100021462846FFF7C6FEE068A04202D008B177
:102520000446F3E70120BDE8FC9F000018090020E5
:102530000000000070B50C46050006D02CB100204C
:102540002060A0600646E06015E0002070BD0DD060
:10255000806958B10268510001D5002003E041684C
:10256000104601F0F9FEA1680844A0602068401CF4
:10257000761C20600DB1288800E00020B04205D90B
:10258000686818B150F826000028E0D1206870BDB6
:102590002DE9FF5F82B00021DDE90430020DDDF896
:1025A00040B0034318D044F61050A2F2FF32424329
:1025B0001514119801281FD0A5EB0B00401C5FEAF1
:1025C000000A4FF000064E4FDFF83891B0465046F3
:1025D00015D5CAF1000413E0119801244AA301287B
:1025E00001D16FEA0B010298119AC0E90031C0E9EC
:1025F000024206B0BDE8F09FCBF10000DFE70446E1
:102600000021404A491842EB0450CDE9001012E085
:10261000E00707D032463B4640464946FDF77CFF7F
:102620008046894632463B4610461946FDF774FF00
:1026300006460F466410002CEAD1DDE90401DDE90D
:102640000023BAF1000F06DAFDF766FF42464B465B
:10265000FDF762FF05E0FDF7D1FF42464B46FDF76F
:10266000CDFF04460E460022284BFEF74FF803D854
:102670004FF0FF30014607E00022254B204631464F
:10268000FDF7A3FEFEF729F8102409E0002C0ADB71
:102690000A220023FDF794FD039B30321A55641E75
:1026A00050EA0102F2D1641C039AC4F111031444EC
:1026B000119A012A03D0012208430DD10AE00843F0
:1026C00004D000204FF0110B119072E7A3EB0B0523
:1026D0006D1E0DE05B4504DD4FF0000205F10105C4
:1026E00004E003DA4FF00002A5F10105002AECD066
:1026F00002981199C0E90231C0E9004579E700006C
:10270000000014400000F03F300000000000F043E3
:102710000000E03F024600683C3800F13C03934271
:1027200004D0038F8B4202D0C06BF5E700207047C6
:1027300070B515460C46086802F066FD50B1D4E944
:102740000F014160D4E90F010860204602F076FFD6
:10275000012070BD45B1D4E90F014160D4E90F01FA
:102760000860204602F06AFF002070BD2DE9FE4F90
:1027700092460F46040004D0B4F8480020B1E56C3E
:1027800003E00020BDE8FE8F00250020E082A0824B
:10279000207BC043800702D030221121DDE0DFB36F
:1027A000D5B32888C0B3B7F80490002659E0A868CC
:1027B000006800EB0610019055D068B306EB4600A8
:1027C000029007EBC00000900389DBF81820C18855
:1027D0009E46C0684B43D2F804C04343634519D8B2
:1027E000DBF80C30D3F80C80884513D1D3F808807F
:1027F000F0450FD1596881420CD16146106801F053
:10280000ABFDDBF80C10DBF81420C968D26851432B
:10281000884204D2182200E025E012219DE0DBF876
:102820001800006801F0B8FD20F07E41029857F8CA
:10283000300020F07E40814201D01922EBE7009861
:10284000006980B10098808878B14946484500D237
:1028500008468146DDE900105A4600F08EF8761CE5
:102860002DB1288804E01722D5E72122D3E70020E4
:10287000B04206D9686820B150F826B0BBF1000F0D
:1028800095D1BAF1000F0AD0B4F84800012808D950
:10289000E56C0C3505D0288818B1002759E00120D7
:1028A00070E7182258E0A868006800EB07183BD0D2
:1028B000B8F1000F38D007EB47000AEBC0010190D8
:1028C0000A89D6F818C0C8888B469646CB6842431A
:1028D000DCF804105A438A42E3D8F2680092D268C6
:1028E0008242DED1009882687245DAD10098406851
:1028F0009842D6D1DCF8000001F02EFDF168726933
:10290000C968D26851438842CBD3B069006801F0EE
:1029100043FD20F07E4201985AF8300020F07E40BE
:10292000824203D0192217E0172215E0DBF81000CD
:102930000028F9D0BBF8040068B14946484500D2E8
:102940000846814659463246404600F016F87F1C3C
:102950003DB1288806E021221321204602F028FEFE
:102960000FE70020B84205D9686818B150F8276011
:10297000002E98D1A4F8149091E730B5D368DC68A4
:102980005369DB685C4384608B886343C3600C6974
:10299000446009691944016091690B689B0007D480
:1029A000D1E902355B1B23448B6091694068C860A4
:1029B00030BD70B50546002621E0A9688369096825
:1029C00001EB06141968890005D5D4E9011298684D
:1029D000FDF736FC08E0D3E90212891A6268114457
:1029E000996080696168C160D4E901010844606050
:1029F0002168884201D3E068081A761C60600DB136
:102A0000288800E00020B04206D96868002803D07A
:102A100050F826000028D0D170BD2DE9F0410546C0
:102A200000262BE0A968096801EB061481690A6891
:102A300092000FD5A26889686068FDF701FCD4E9AF
:102A40000110014461602068814201D3E168411AAC
:102A5000616012E0D4E90112114461602268914280
:102A600001D3E168511A61608269D2E90237DB1B48
:102A70001944916080696168C160761C0DB1288835
:102A800000E00020B04206D96868002803D050F862
:102A900026000028C6D1BDE8F08100002DE9FF4FD7
:102AA00095B09B468946064600250FE2252877D13A
:102AB00000242746F84A0121059400E0044316F853
:102AC000013F203B01FA03F01042F7D130782A2869
:102AD00011D06FF02F033078A0F13002092A16D8F8
:102AE000059A44F0020402EB820203EB4202104416
:102AF000761C0590EFE759F8042B0592002A03DABB
:102B0000504244F40054059044F00204761C30789E
:102B10002E2816D116F8010F44F004042A280DD0EF
:102B20006FF02F023078A0F13003092B09D807EBA2
:102B3000870302EB4303C718761CF3E759F8047BBD
:102B4000761C30786C280FD006DC4C2817D068280B
:102B50000DD06A2814D104E0742810D07A280FD13F
:102B60000DE044F400140AE044F4801401E044F45D
:102B700040147278824202D104F58014761C761CCF
:102B8000307866280BD013DC582877D009DC002871
:102B900075D04528F6D04628F4D047281AD19DE1B3
:102BA00018E0632835D0642879D0652812D195E1E2
:102BB000702873D008DC6728F1D069286FD06E28A0
:102BC0000DD06F2806D1B5E073282CD0752875D0AC
:102BD000782874D05A46179990476D1C75E1C4F354
:102BE0000250022809D003280DD0D9F8001004287B
:102BF0000DD00D6009F1040967E1D9F80010EA175A
:102C0000C1E90052F6E7D9F800100D80F2E70D7027
:102C1000F0E719F8041B8DF8001000208DF8010072
:102C2000EA46012003E059F804AB4FF0FF3061079A
:102C30004FF0000102D40DE008F101018846B942CD
:102C40000FDA8045F8DB1AF808100029F4D108E003
:102C500008F1010188468142FADB1AF808100029C0
:102C6000F6D105985B46A0EB080721463846179A2F
:102C700000F094FA284400EB080507E04DE029E154
:102C80000DE01AF8010B5A4617999047B8F1010860
:102C9000F7D25B4621463846179A13E142E00A22F2
:102CA0000092C4F302524FF0000A022A08D059F8E9
:102CB00004CB032A4FEAEC710AD00DE029E02AE0A8
:102CC00009F1070121F00702F2E802C1914609E08B
:102CD0000FFA8CFC4FEAEC71042A03D14FFA8CFCFA
:102CE0004FEAEC71002907DA0A460021DCF1000CFA
:102CF00061EB02012D2202E0220504D52B228DF882
:102D00000420012203E0E20701D02022F7E79046E9
:102D100059E00A2102E010220DE010214FF0000AD4
:102D200000910BE010224FF0000A44F00404082741
:102D3000009203E008224FF0000A0092C4F302520E
:102D4000022A05D059F804CB0021032A08D009E053
:102D500009F1070121F00702F2E802C1914605E0FE
:102D60001FFA8CFC042A01D10CF0FF0C4FF0000874
:102D7000220728D5702806D0009B83F0100353EA61
:102D80000A0305D00EE040228DF80420012208E05D
:102D90005CEA010206D030228DF804208DF805008F
:102DA00002229046009B83F0080353EA0A030AD1EB
:102DB0005CEA010201D1620705D530228DF80420BA
:102DC0004FF001087F1E582804D034A003900EA8AD
:102DD00002900DE036A0F9E753466046009AFDF7F1
:102DE000EFF984460398825C0298401E02900270BC
:102DF0005CEA0100F0D1029806A9081A00F1200A45
:102E0000600702D524F4803400E00127574502DD35
:102E1000A7EB0A0000E0002000EB0A0100900598F3
:102E20004144401A0590E00306D45B462146179AB8
:102E3000059800F0B3F90544002706E001A85A46BA
:102E4000C05D179990476D1C7F1C4745F6DBE0037A
:102E50000CD55B462146179A059800F09FF905446A
:102E600004E030205A46179990476D1C0099481E7F
:102E700000900029F5DC08E0029802995A46007893
:102E8000491C0291179990476D1CBAF10001AAF1F3
:102E9000010AF1DC65E1000009280100303132331C
:102EA0003435363738396162636465660000000086
:102EB0003031323334353637383941424344454670
:102EC0000000000000F058F90544761C3078002816
:102ED0007FF4ECAD19B02846BDE8F08F620700D44E
:102EE000062709F1070222F0070CFCE80223E1465D
:102EF00003F000485FEA080C02D00FF2702C0DE0DE
:102F00005FEA045C02D50FF2682C07E05FEAC47C3C
:102F100002D00FF2602C01E0AFF2700C4FF0FF38DE
:102F200023F00043CDF850C065280CD006DC4528BE
:102F300009D046281DD047283DD13DE0662818D04D
:102F400067287ED138E00021112F01DB112000E03D
:102F5000781CCDE9000106A90EA8FFF719FBDDE9F1
:102F60000F010E9A03910021009207F1010A0491CA
:102F70004DE04FF000400097CDE9011006A90EA8E2
:102F8000FFF706FBDDE90F0203920E9B1199002269
:102F9000DDF80CA00093049211B9791C00EB010A32
:102FA000B7EB0A0004D4C0F1FF3007F1010A049026
:102FB000AAEB0700019044E0012F00DA012700216D
:102FC000112F01DD112000E03846CDE9000106A9EE
:102FD0000EA8FFF7DDFADDE90F010E9A039100213B
:102FE00004910092BA4621070CD40399514500DAA6
:102FF0008A46BAF1010F05DD009AAAF10101515C80
:10300000302908D0B84202DA10F1040F06DA0121A3
:10301000CDE9011015E0AAF10101E9E7002805DC7E
:10302000049901440491AAEB000102E0411C5145BE
:1030300000DD8A460499401A401C01904FF0004080
:103040000290200704D40198504501DBCDF804809C
:1030500000208DF84F0002980DF14F07B0F1004F9E
:1030600025D02B200E9002984FF0020800280CDA91
:10307000404202902D200E9007E00A210298FDF7B1
:1030800047F93031029007F8011DB8F10001A8F1AD
:103090000108F2DC02980028EFD1791E0E98087022
:1030A000307800F0200040F0450007F8020D12A82B
:1030B000C01B00F107081498007800B1012000EB54
:1030C0000A01019801EBE07105984144401A401E45
:1030D0000590E00306D45B462146179A059800F058
:1030E0005DF805441498007818B15A46179990472E
:1030F0006D1CE00324D55B462146179A059800F025
:103100004DF805441CE00498002807DBDDE90301C5
:10311000884203DD0098405C179901E01799302040
:103120005A469047049805F10105401C0490019807
:10313000401E019004D12E205A46179990476D1CCD
:10314000BAF10001AAF1010ADDDC05E017F8010B74
:103150005A46179990476D1CB8F10001A8F1010873
:10316000F4DC5B462146179A0598ABE62D0000007B
:103170002B000000200000002DE9F041044600254E
:103180001E461746880404D405E039462020B0477F
:103190006D1C641EF9D52846BDE8F0812DE9F0418B
:1031A000044600251E469046C80301D5302700E09E
:1031B0002027880404D505E041463846B0476D1CF9
:1031C000641EF9D52846BDE8F0810000F0B50C4634
:1031D000074601468FB034A0FEF7FCFBC4EB441653
:1031E000394C002204EBC6010D46384601F0B2FE10
:1031F00010F0FF0F06D035A100F0A2F94FF0FF301C
:103200000FB0F0BD36A0FEF7E5FB30223B49684623
:10321000FDF716F854F836000DAA0CA901F002FFCC
:1032200018B90C98411C12D00A9054F8360069461F
:1032300001F03CFF0027B8B1291D54F8360001F019
:1032400004FF08B3281D00F051FE0020D8E71E48F7
:10325000F8300A900C90B5F84800B5F8461048438D
:10326000E96C48430D90E0E754F8360001F0C6FEE3
:1032700023A100F065F954F8360001F099FE44F8F6
:1032800036706FF00300BBE754F8360001F0B6FE6D
:1032900020A100F055F954F8360001F089FE44F8F9
:1032A00036706FF00100ABE74372656174696E6759
:1032B00020746865206E6574776F726B20222573A9
:1032C000222E2E0D0A000000D00C002061695F6DD7
:1032D0006E6574776F726B5F637265617465000011
:1032E000496E697469616C697A696E672074686592
:1032F000206E6574776F726B0D0A0000E83D06085A
:1033000061695F6D6E6574776F726B5F696E69740A
:103310000000000061695F6D6E6574776F726B5FAE
:103320006765745F696E666F00000000C18802897E
:10333000C06851434843704770B505004FF0000422
:103340001AD02A780F48CAB10446006888B160686C
:10335000FCF79AFF06462846FCF796FF864208D1FE
:103360006068FCF791FF024629466068FCF7A0FF01
:1033700000B10024204670BD002070BD0029F9D1A5
:103380000446F7E7D00C0020FEB501200421CDE96A
:1033900000100024024601464FF0FF3523460294F8
:1033A0000EA0FEF717FB1A48002604608467A0F8F9
:1033B0007C403146002001F013FE040009D0014694
:1033C00014A0FEF707FB31462046FFF7FFFE05007D
:1033D00002D1761C002CECD12846FEBD0D0A4149D5
:1033E00020706C6174666F726D20284150492025F1
:1033F000642E25642E2564202D2052554E54494DAF
:10340000452025642E25642E2564290D0A00000020
:10341000D00C00200D0A466F756E64206E657477BF
:103420006F726B20222573220D0A000030B591B017
:103430000025C0F8D0500446C0F8D450684601F0CA
:1034400051FC8DF8015019488DF80250CDE901501A
:1034500003952068691E30B304AA10A901F003FE89
:10346000694604F17800039401F00AFCC0B1109899
:10347000C4F89800302204A904F19C00FCF7E0FE97
:1034800074B1204600F04EF8C4F8D050C4F8D450BF
:10349000A06F28B104F1980101F0B8FBA4F87C00FA
:1034A000002011B030BD0846FBE70000A135000840
:1034B000F0B516462DED028B81B0B0EE408A1C4669
:1034C0000D4607461A0021D0906F30B1B2F87C103B
:1034D00019B1803201F027FCC0B11520E88054F802
:1034E000800FA86085ED068AE06868616068E86022
:1034F000A068286132462946384600F071FB01B0C9
:10350000BDEC028BBDE8F04000F0B4BB0A200346DE
:10351000009004222946384600F0A0FA01B0BDEC24
:10352000028BF0BD10B5040009D0A06F20B1B4F833
:103530007C1009B101F00CFC0020A4F87C0010BD47
:10354000020A29B1C0B21346024603A0FEF742BAEE
:10355000C1B20BA0FEF73EBA453A20414920657240
:10356000726F722028257329202D20747970653D93
:10357000256420636F64653D25640D0A000000002A
:10358000453A204149206572726F72202D2074796E
:1035900070653D256420636F64653D25640D0A00F8
:1035A0002DE9FC410F4604460026C2B1012A3CD158
:1035B00002F004FB054602F01BFBD4E93C10783412
:1035C00049197041C4E91E1054F85C0F401C44F8BE
:1035D000640954F87019884211D1022010E054F89F
:1035E000D00F401C206002F0E9FAD4E9061240181E
:1035F0005641C4E90606BDE8FC4102F0F9BA0120D3
:10360000060494F8E00008B146F000462846002180
:1036100002F0B8FA79697888CDE900013B88D4E9ED
:1036200036013343022200F023FABDE8FC81002872
:1036300007D0C288C168514302898088424301FB98
:1036400002F070472DE9FC4114680646002021690C
:1036500065680A68E060402A03D0206803689342E6
:1036600002D00025022011E00B69C768BB420BD1D4
:10367000C7888B68BB4207D10789CB68BB4203D19F
:1036800049688088814202D000250520E060C2F3AD
:10369000C610001D4FEAD0082068076913E04246B3
:1036A0006946304604F0DCFA002818D0002D07DD0A
:1036B0002FB1424669463846FCF7C2FD47446D1EAD
:1036C000A068401CA060B0680028E8D1E06828B974
:1036D000D4E90101814201D00120E0600120BDE870
:1036E000FC812DE9F04116680B4680467568B5B13E
:1036F0003068A0B101880769C1F3C611091DCC0863
:103700001946404604F030F9002809D004FB05F2C0
:103710003946404604F0A8F8002801D0B5600120E1
:10372000BDE8F08138B50D46044681680C30FFF7DE
:1037300003FE40B1031D01B029462046BDE83040DC
:10374000002200F0D7B90420034602460090294623
:10375000204600F083F938BD2DE9F74F8046002759
:1037600094B0791E0C30FFF7E7FD040017D000205D
:1037700084F8E000D8F80800C10700D001278007CE
:103780004FF0010902D5012784F8E0900020C4E938
:103790003A00C4E93C0005460DF10C0B20E0042082
:1037A0000346009077E000BFA06B05EB450600EBF9
:1037B000C6010BEBC60082461822FCF741FDAAF8B1
:1037C00004901020A16B00EBC600085810B1CAF895
:1037D000100004E0544850F82510CAF810106D1C71
:1037E000A08EA842E0DC0BA8CA460025814612E064
:1037F00005EB4500E16B09EBC00601EBC0011822A7
:103800003046FCF71DFD4848A6F804A0001D50F8FE
:1038100025006D1C3061E08EA842E9DC03A8FFF7AB
:1038200006FF03460026012200964046159900F047
:1038300015F900250FE00122691C884200D10222FF
:1038400005EB45010BEBC1034046159900F0C6F8A6
:10385000002825D06D1CA08EA842ECDC02F08EF969
:103860000A9015980CB1C4E9368017B12046FFF7CD
:10387000DDFD02F0BDF90BAA03A9206801F05DFC93
:10388000012810D0206801F0B9FB28A1FFF758FEED
:103890000A200346009004224046159900F0DEF805
:1038A00017B0BDE8F08F02F089F9D4F8E820D4F819
:1038B000F010B24651180E184FB13046002102F0F8
:1038C00061F92346022240461599FFF7F1FD0025D4
:1038D000CB4617E0691C4FF00209884201D14FF036
:1038E00003093046002102F04DF905EB45010BEBD1
:1038F000C100CDE900A000234A464046159900F0DA
:10390000B7F86D1CE08EA842E4DC47B12046FFF713
:1039100009FEA06F08B101F0EFF9C4F878A00A9889
:1039200004F0DAFBBCE70000D408002061695F6D99
:103930006E6574776F726B5F72756E000A23CB8051
:1039400040F201238B600223CB6012B142F00202ED
:10395000CA60002200F044B970B505460B200C4641
:10396000C880FDF7E3F8A060FDF74AFAE060FDF7D4
:1039700021FA206102F040FE606121462846BDE840
:103980007040002200F02CB930B585B0044600210B
:10399000684604F005F99DE82E000F4880E82E00E7
:1039A0000021684604F048F90B481422694610309B
:1039B000FCF746FC08490020002C8862486209D0C8
:1039C000204603E08A6A521C0C308A624268002A50
:1039D000F8D14C6205B030BD600C00202DE9F041FB
:1039E00090B00024804616460F46012503941846E1
:1039F00004940193FFF71BFE029006A8059014485B
:103A00000D9001A80E9006AA1249134803F0B3FBCB
:103A100002F03CFE049848B1C0B20090042239463E
:103A20004046049B00F01AF800250CE00094324652
:103A300039464046039B00F011F8012E01D0022EBA
:103A400001D100F017F910B02846BDE8F081000060
:103A500045360008EF400608600C002030B40C2505
:103A6000029CCD808B600C7330BC00F0B9B80000B4
:103A70002DE9F04786B00026DDE90E9582466F6994
:103A800090460C460296284603960095FFF7CFFD18
:103A900004960190002B00DA01960E21E18023F0BC
:103AA0000040C4E9020984ED040A28686061A8881E
:103AB000A061E888E06128892062E868606204F11A
:103AC00014020021384600F09DF809482063C4F82C
:103AD00034D042462146504600F082F8B8F1020F39
:103AE00003D0012006B0BDE8F08700F0C3F8F9E785
:103AF000E33600082DE9F04107461420C880164639
:103B00000C461D4640220831186800F001F9402299
:103B100004F14801686800F0FBF8402204F18801D4
:103B2000A86800F0F5F8402204F1C801E86800F048
:103B3000EFF8402204F58471286900F0E9F840228A
:103B400004F5A671A86900F0E3F8288EC4F8A00176
:103B5000688EC4F8A401E86EC4F8A801E86AC4F845
:103B60009C01286FC4F8F40105F1240004F5A47445
:103B700000F0F2F8E06405F1280000F0EDF82065AF
:103B800005F1140000F0E8F8206005F11C0000F0D9
:103B9000E3F8606405F1200000F0DEF844F8480F17
:103BA00004F12C0105F13C00A4F5C87402F02AFDD3
:103BB00004F5EC7105F1540002F024FD0648C4E957
:103BC0006B050648C4E96D05324621463846BDE816
:103BD000F04100F005B800003D6C00084D6C000895
:103BE00010B5006808600A710A460449044803F0E9
:103BF000CDFDBDE8104002F055BD00003942060879
:103C0000700C002010B59FED1A0A002382ED050A02
:103C1000936100282AD00378DB0727D04368002B64
:103C200024D05C683CB15B888B4204DD236803EBE5
:103C3000810393ED000A82ED050A0378DB0713D0B8
:103C4000406888B103789B07436806D563B1408814
:103C5000884209DD5868405C07E02BB14088884203
:103C600002DD5868405600E00020906110BD000061
:103C7000000000001CB50020009001906A46044935
:103C8000044803F078FA044602F000FD20461CBD0B
:103C900094410608600C0020F8B502F0F7FC194AC0
:103CA000194902F5127003F066FA30B302F0EEFC27
:103CB000164D14480024D5E9091203790FE000BF1E
:103CC00004EB440001EB800006789E4206D1D0E967
:103CD00001320C490B485031984702E0641CA24263
:103CE000EED8A86AA04208D104200649034602463D
:103CF000009050310348FFF7B1FE02F0C7FC0020EE
:103D0000F8BD0000180A0020883E0608600C00205C
:103D1000FEB514460DA20D46064607CA8DE80700FB
:103D20003046FCF7B1FAA04200D9601E002D0CD03D
:103D30001EB110B1421C314604E06846FCF7A4FAFB
:103D4000421C69462846FCF77BFAFEBD554E4445A9
:103D500046494E4544000000002805D00168C0785F
:103D600009BA21F0FF0108437047000038B5144636
:103D70001268C2F343450A4601463CA0FDF72AFEFD
:103D8000022D1CD0012D64D03AA0FDF723FEE1687E
:103D9000009120892588E2880346C5F3C615504363
:103DA00069434843001DC10834A0FDF713FE216993
:103DB000002955D0BDE8384038A0FDF70BBE20687B
:103DC000C0F3C612C015C00701D038A100E038A169
:103DD00038A0FDF7FFFD606960B30178C90729D0FD
:103DE000406838B3416829B142881AB10A6892ED37
:103DF000000A01E09FED310A0278920705D559B11A
:103E0000408848B14868057807E029B1408818B172
:103E1000486890F9005000E0002510EE100AFCF709
:103E200064FA41EC100B26A053EC102B0095FDF723
:103E3000D1FDACE7206800F07F02C0F3C05111440F
:103E4000C0F3C610411A23A04031403AFDF7C2FD2D
:103E50009DE72088C0F3C61120A0FDF7BBFD96E7C3
:103E6000BDE8384020A0FDF7B5BD000025735B25F7
:103E7000645D20004E4F4E450000000020256C641C
:103E80002062797465732C2073686170653D282504
:103E9000642C25642C256C64290000002028403007
:103EA0007825303878290D0A0000000073000000E2
:103EB0007500000020257325642C00000000000020
:103EC000207363616C653D25662C207A65726F3DB9
:103ED00025642C005125642E25642C0020666C6F0F
:103EE000617425642C0000000D0A000038B50446FA
:103EF00031A0FDF76FFD37A02168FDF76BFD3CA0F9
:103F00006168FDF767FD41A0A168FDF763FD46A06C
:103F1000E168FDF75FFDA07D0090637D227D49A0F3
:103F20002169FDF757FDA07F0090637F227F4FA09E
:103F3000A169FDF74FFD57A0FDF74CFD5AA0E16EBA
:103F4000FDF748FD5FA0E16AFDF744FD04F13C0088
:103F5000FFF7ECF9014664A0FDF73CFD04F15400C5
:103F6000FFF7E4F9014669A0FDF734FD628E218E6A
:103F70006FA0FDF72FFD00250AE000BF606B05EB89
:103F8000450100EBC102294671A0FFF7EFFE6D1C51
:103F9000208EA842F2DC00250AE000BFA06B05EBF2
:103FA000450100EBC10229466BA0FFF7DFFE6D1C47
:103FB000608EA842F2DC38BD4E6574776F726B205C
:103FC000636F6E66696775726174696F6E2E2E2EEF
:103FD0000D0A0000204D6F64656C206E616D6520D8
:103FE00020202020202020203A2025730D0A0000C8
:103FF000204D6F64656C207369676E6174757265BE
:10400000202020203A2025730D0A0000204D6F64E7
:10401000656C206461746574696D652020202020C2
:104020003A2025730D0A000020436F6D70696C659E
:10403000206461746574696D652020203A202573C1
:104040000D0A00002052756E74696D6520726576E8
:104050006973696F6E2020203A202573202825641B
:104060002E25642E2564290D0A00000020546F6F50
:104070006C207265766973696F6E20202020202085
:104080003A202573202825642E25642E2564290DC9
:104090000A0000004E6574776F726B20696E666F60
:1040A0002E2E2E0D0A00000020206E6F64657320F6
:1040B0002020202020202020202020203A20256C95
:1040C000640D0A002020636F6D706C6578697479E7
:1040D00020202020202020203A20256C64204D41E3
:1040E00043430D0A0000000020206163746976617B
:1040F00074696F6E20202020202020203A20256C1B
:10410000642062797465730D0A00000020207061DC
:1041100072616D732020202020202020202020206C
:104120003A20256C642062797465730D0A000000E2
:104130002020696E707574732F6F75747075747349
:10414000202020203A2025752F25750D0A0000001B
:1041500020202049000000002020204F0000000007
:1041600070B5064614460D4608A0FDF733FC2346FD
:104170002A46314607A0FDF72DFC0AA0FDF72AFCD0
:10418000BDE87040084909A0FDF724BC0D0A230DC5
:104190000A000000232025732025642E25640D0AC3
:1041A00000000000230D0A00B0374D00436F6D7012
:1041B000696C65642077697468204D444B2D4152C9
:1041C0004D204B65696C2025640D0A0010B5084828
:1041D000FFF7DAFB0222032106A0FFF7C1FF01F07F
:1041E000F3FC01F0F7FA02F083FA002010BD0000A2
:1041F000DC08002041492056616C69646174696F74
:104200006E00000010B5FFF7BFF8040009D00146AA
:1042100015A0FDF7DFFB4FF4FA60FCF793FB204697
:1042200010BD17A0FDF7D6FB16A0FDF7D3FB21A00C
:10423000FDF7D0FB13A0FDF7CDFB11A0FDF7CAFBE6
:104240002848FDF7C7FB28A0FDF7C4FB0122022187
:1042500032A0FDF7BFFB02F013FA00BFFFF71CFD11
:104260000028FBD010BD00000D0A453A20206169EE
:10427000496E6974282920723D25640D0A000000EA
:104280000D0A00002D2D2D2D2D2D2D2D2D2D2D2DFB
:104290002D2D2D2D2D2D2D2D2D2D2D2D2D2D2D2D4E
:1042A0002D2D2D2D2D2D2D2D2D2D2D2D2D2D2D0D5E
:1042B0000A0000007C20524541445920746F20724E
:1042C000656365697665206120434D442066726FA1
:1042D0006D2074686520484F53542E2E2E207C0D7F
:1042E0000A000000D04306082320616E642061208C
:1042F00073746D3332636F6D2D6261736520696E07
:10430000746572666163652073686F756C642062A2
:104310006520757365640D0A00000000232028697C
:104320002E652E20507974686F6E2073746D333251
:10433000636F6D206D6F64756C65292E2050726FF0
:10434000746F636F6C2076657273696F6E203D20A9
:1043500025642E25640D0A0099B1C0F3C612C0F37E
:104360008233134403FB01F2D21D22F00701C0F394
:104370004152D140C0F34340042804D0082807D15B
:1043800004E00020704701EB031101E001EB032181
:10439000C91DC8087047000030B54021C0F3434232
:1043A000022A18D02E4A20F07E44A31A0D0194420E
:1043B00047D024DC2B4AA4EB0203944241D017DC03
:1043C000402C42D0403CB4F5802438D0AC423CD1A3
:1043D0002449C91F39E0C0F3C051C905C0F3C61252
:1043E00041EAC21100F07F02114341F480212CE028
:1043F000A3F54073F93B16D00F2B26D123E0B3F57C
:10440000006F14D006DCAB420FD0A3F58063073BEE
:104410001BD10EE0A3F500630F3B0DD0124AD3422F
:1044200013D1124911E012490FE012490DE012496F
:104430000BE01049C91D08E00F490F3105E00F4995
:1044400003E0114601E00A490F3100F080420A43BF
:1044500000F00051114300F00060084330BD00003F
:1044600040008400470404000FF801FF401082015F
:104470004008040040048400400884004000040018
:1044800008B509A10968009148B101789DF800209C
:10449000914204D104226946FBF7FDFE08B10020D9
:1044A00008BD012008BD0000038404842DE9FF4FEE
:1044B00083B0DDE91141B1FBF4FADDE91370DDE908
:1044C0001895DDE91668791B61430291DDF840E03B
:1044D000DDF854C0411B0191ACEB0801414306FBE0
:1044E0000090009103EB8001049B9E4502D19FED5B
:1044F000361A01E0B7EE001A7E43664302EB8602ED
:104500004FF0000902EB840B58E0002753E000BF96
:104510000EEB8900002690ED000A104620EE010AFD
:104520003CE0002325F0030C22E000BFD1ED002A7F
:1045300090ED003A00EB840091ED012A02EE830A2F
:10454000D0ED002A00EB8400D1ED021AD1ED030A70
:10455000103102EE220A90ED002A00EB84001B1DB0
:1045600001EE820AD0ED001A00EB840000EEA10AF1
:104570009C45DBDC09E000BFF1EC010AD0ED001A3C
:1045800000EB84005B1C00EEA10AAB42F4DB029B53
:10459000761C00EB8300019B01EB83014645C0DBE9
:1045A00000987F1C01EB8001049800EB890009F161
:1045B000010980ED000A5745AAD3121D9345A4D8DE
:1045C00007B0BDE8F08F0000000000002DE9FF4FAC
:1045D0008DB01AACDDE9255294E88140DDE9236312
:1045E000DDE91F8ADDE9219CDDF874B000B90846D9
:1045F0009C1B531B1E9ABCF1010F02FB08F201D158
:10460000012A1CD0BC4501D1012A28D0CDE90B5389
:10461000CDE906A9CDF820C0CDF81480CDE9096414
:104620001E9BCDE90007CDF808E0CDE903B3DDE935
:104630000F230D9800F024F811B0BDE8F08FCDE9FC
:104640000664CDE90853CDE90007CDE904A9CDE919
:1046500002EBDDE90F230D9800F0C4F8ECE7CDE99B
:104660000664CDE90853CDE90007CDE904A9CDE9F9
:1046700002EBDDE90F230D98FFF718FFDCE70000E0
:104680002DE9FF4F86B017ACDDE91EC794E8450061
:104690009CFBF0F400FB14C4041B94FBF0F5DDE973
:1046A0001C9100FB154E99FBF2F502FB1594141BAF
:1046B00094FBF2F502FB15450CEB0004641E94FB21
:1046C000F0FC09EB0204641E94FBF2F8A7EB0E0465
:1046D000DDE9143B491B1144491E91FBF2F7DDF85B
:1046E0006CA00444641E94FBF0F4CDE9008CDDF86A
:1046F00058C0B3FBFAF102FB0CF200FB1422584342
:104700005A43401ACDE90402301B48431A9A0390D9
:1047100001FB06F0D21B5043DDE9008C029008FB40
:1047200006C0BBFBFAFB099A484302EB8002079ED6
:104730001398B04202D1DFED2A0A01E0F7EE000A39
:10474000169809EB050606FB00E05843089B4FF05E
:10475000000803EB800E40463BE0002633E0139850
:10476000002500EB880090ED000A704620EE200A3C
:104770001CE0002311E000BF00EB810C06E000BF4D
:10478000B2EC011AF0EC011A01EE210A6045F7D3F0
:10479000DDF810C05B1C00EB8C00A342ECDB059B3A
:1047A0006D1C00EB8300039B02EB8302BD42E0DB48
:1047B0000298761C02EB8002079800EB880008F153
:1047C000010880ED000A5E45C9D30EEB810E09F1A8
:1047D000010081465045C0D30AB0BDE8F08F00000B
:1047E000000000002DE9FF4F81B08A46DDE911612C
:1047F000DDE90E82DDE91447179DDDF84CC0701B22
:1048000050430090481B00FB02FE02FB01F0ACEBA2
:10481000070C00FB0CFB1698DDF8409004FB010030
:10482000504303EB800102FB05F0D04502D1DFEDE0
:104830002B0A01E0F7EE000A74435443039A02EB9B
:104840008406002444E000BF08EB8402002592EDBA
:10485000000A324620EE200A31E0002320F0030C4B
:104860001BE000BF92ED004AD1ED004AD2ED012AD3
:10487000D1ED013A04EE840A92ED022A91ED023A5A
:10488000D2ED031A91ED031A103103EEA20A103291
:104890001B1D03EE020A01EE210A9C45E2DC06E044
:1048A000F1EC011A5B1CB2EC011A01EE810A8342A1
:1048B000F6DB009B01EB8E0102EB83026D1CBD4217
:1048C000CBDB0AEB840201EB8B0182ED000A641C56
:1048D0004C45B9D305B0BDE8F08F000000000000E2
:1048E0002DE9FF4F8DB00F46DDE91C960025DDF860
:1048F0009CB0DDF878A0DDF86C80259C31E060424A
:10490000002800DC0020311B5A46594500D31146CF
:10491000269A231802FB06320F9B02FB08F203EBD8
:104920008202DDE9233CCDE90B01CDE9093CDDE95B
:104930001F130DF1140E2998DDF888C08EE80B10B6
:1049400028983946CDE90360CDE901891A9800908D
:10495000109B0D98FFF73AFE219807EB8907044456
:104960006D1C5545CBD311B0BDE8F08FF0B5059D5A
:1049700025F0010403EB84069FED460AEF085AE098
:1049800051F8044BD3ED002A04F0FF0C4FEA1C1E33
:1049900002EB8E0E0CF00F0C9EED002A02EB8C0C3D
:1049A00002EE220ADCED001A93ED012AC4F3072C73
:1049B0004FEA1C1E02EB8E0E01EE820A9EED001ADB
:1049C000D3ED021A0CF00F0C02EB8C0CD3ED042A81
:1049D00001EE210ADCED000A93ED031AC4F3074C43
:1049E0004FEA1C1E02EB8E0E00EE810A9EED002A9D
:1049F0000CF00F0C02EB8C0C240EDCED001A02EE16
:104A0000220A93ED052A4FEA141C02EB8C0C04F0E9
:104A10000F049CED001A01EE820AD3ED061A02EB98
:104A20008404D4ED000A01EE210A93ED071A203325
:104A30007F1E00EE810A002FA2D115E011F8014B74
:104A400093ED001A270902EB870704F00F04D7ED56
:104A5000000A02EB840400EE810AD4ED000A93ED13
:104A6000011A083300EE810AB342E7D3EC0709D0FC
:104A7000097893ED001A090902EB8101D1ED000AD2
:104A800000EE810AD0ED000A30EE800A80ED000AC7
:104A9000F0BD000000000000F0B59FED380A059D54
:104AA000EE0851E051F8044BD3ED002AE7B202EBD7
:104AB0008707D7ED001AC4F3072702EB870701EE3B
:104AC000A20A97ED002AD3ED011AC4F3074702EBBF
:104AD0008707240E02EE210A97ED001AD3ED021A81
:104AE00002EB8404D3ED042AD4ED000A01EE210A7E
:104AF00093ED031A51F8044BE7B202EB870700EE7F
:104B0000810A97ED002AC4F3072702EB8707D7ED48
:104B1000001A02EE220A93ED052AC4F3074702EBBE
:104B20008707240E97ED001A01EE820AD3ED061ACC
:104B300002EB8404D4ED000A01EE210A93ED071A7A
:104B40002033761E00EE810A002EABD105F007045B
:104B50000BE000BF11F8015B641E02EB8505B3ECAE
:104B6000011AD5ED000A00EE810A002CF2D1D0ED39
:104B7000000A30EE800A80ED000AF0BD000000005F
:104B8000F0B5042BDDE9055400EB840427D0082B95
:104B900027D12FE000236E0812E00F783F0902EBC7
:104BA000870797ED000A80ED000A11F8017B07F0F6
:104BB0000F0702EB870797ED000A80ED010A083026
:104BC0001F465B1CB742E8D3EB0708D011F8013B46
:104BD0001B0902EB830393ED000AA0EC010AA0423B
:104BE000D8D3F0BD11F8013B02EB830393ED000A2B
:104BF000A0EC010AA042F5D3F0BD10B5016904464E
:104C00008847E068A04200D1002010BD70B50C4676
:104C100000F0F6FB050024D01CB3206808B326463C
:104C2000442000F000FD041E1AD0288C2087288C18
:104C30003822401C288431462046FBF701FB04F152
:104C40003C00E063206405F11801AA69C0E9002175
:104C50005060A8611039206800F022FB18B1208F45
:104C600070BD002070BDD4E90F014160D4E90F018F
:104C70000860204600F0E2FC288C401E2884F0E703
:104C800070B58AB00D46060018D0154C2421684630
:104C9000FBF7EFFA242269462046FBF7D1FA012000
:104CA000A072208404F11800A061E0614DB195E884
:104CB0000F0004F1080C8CE80F000BE000200AB094
:104CC00070BD684600F00EF89DE80F0004F108057D
:104CD00085E80F00204600F0A1FB30600120EEE7E0
:104CE00018720020002101230A4663F30702C0E97D
:104CF00000218160C160704770B500F081FB050044
:104D000003D0A96951F83C4907E0002070BD012299
:104D10002846FDF70DFD2146E46B481B3C3C243042
:104D2000F5D1012070BD70B514460D4600F068FB4A
:104D300060B15CB129461830FDF7ECFC002806D0C4
:104D400000682146BDE8704000F096BA002070BDB2
:104D500070B50D4600F054FB04000DD065B1294636
:104D600004F11800FDF7D6FC011E06D02046BDE870
:104D700070400022FDF7DCBC002070BDA0F51C5087
:104D800011381C2811D2DFE800F00E0E100E0E0EA6
:104D90000E0E0E0E0E0E0E0E0E0E0E100E0E0E0E31
:104DA0000E0E0E0E0E0E0120704700207047000000
:104DB00000B50246FFF7E2FF002848D0A2F51C52DA
:104DC000113A1C2A43D2DFE802F00E1042121416E8
:104DD000181A1C1E20222426282A2C422E30323457
:104DE00036383A3C3E401BA000BD1BA000BD1BA0B6
:104DF00000BD1CA000BD1DA000BD1DA000BD1DA0CC
:104E000000BD1EA000BD1EA000BD1FA000BD23A0B0
:104E100000BD25A000BD26A000BD26A000BD27A086
:104E200000BD29A000BD2DA000BD2EA000BD2FA05B
:104E300000BD31A000BD32A000BD33A000BD38A030
:104E400000BD38A000BD39A000BD3AA000BD0AA039
:104E500000BD000041444400424E0000434F4E5606
:104E60003244000044454E5345000000475255006F
:104E70004C524E004C53544D000000004E4C00006C
:104E80004E4F524D000000004F5054494D495A4575
:104E9000445F434F4E563244000000005452414E8E
:104EA00053504F5345000000504F4F4C000000003E
:104EB000534D000053504C495400000054494D4597
:104EC0005F44454C4159000054494D455F444953A6
:104ED000545249425554454400000000434F4E434C
:104EE0004154000047454D4D0000000055505341CE
:104EF0004D504C4500000000454C54574953450067
:104F000047454E4552494300494E5354414E43454F
:104F10004E4F524D414C495A4154494F4E000000AA
:104F200050414400534C49434500000054494C450E
:104F300000000000524544554345000010B50446AA
:104F4000006D002805D06065FFF757FE60650028FA
:104F5000FAD110BD2DE9F041804617460D460020DC
:104F600000F096F8060015D0104C4046214600F09F
:104F7000CAF888B1BFB1226C394628469047010A69
:104F800006D110F0FF0F03D13460296871602E60E4
:104F9000BDE8F081312000E0142060F30705E8B29D
:104FA00000F58050F4E7226C616BE6E74C3D0608A3
:104FB00070B5054600F06CF804000CD0D4E9001080
:104FC000896C88476168814205D004480021A0426D
:104FD00000D101600025284670BD0000A009002016
:104FE00070B5054C0D46214600F08DF810B90DB195
:104FF000002070BD206870BD4C3D060810B501460C
:10500000142262F30700C4B2084604F5805400F08D
:105010003FF828B103C8426CBDE81040084610476D
:10502000204610BD70B514460D4600F031F848B169
:1050300045B13CB10168896D29600068C06D206090
:10504000002070BD4FF0FF3070BD10B50C4600F071
:105050001FF8002806D005C82146C36BBDE81040E4
:105060001046184710BD70B515460C4600F010F8F4
:1050700058B154B14DB14168216000F108013022AE
:105080002846FBF7DDF8002070BD4FF0FF3070BD03
:105090000100054803D0884204D1084670470168E2
:1050A0000029FBD000207047A009002030B58DB04A
:1050B0000D46FFF7EDFF040023D02168302268463B
:1050C000091DFBF7BDF8A88B30B1182205F11801B6
:1050D00006A8FBF7B5F801E0A86A0A90A88828B1ED
:1050E000182229466846FBF7ABF803E02068806B7E
:1050F00080470490D4E90010CA6C694690470DB00F
:1051000030BD0020FBE770B50C46050011D02068CB
:10511000FBF7BAF806462846FBF7B6F8864208D1F0
:105120002068FBF7B1F8024629462068FBF7C0F873
:1051300008B1002070BD012070BD70B514460D4649
:10514000FFF7A6FF002808D009C82246066D2946A9
:10515000B446BDE870401846604770BD1CB50023DA
:105160000322CDE900230123014A00F067F91CBDA9
:105170006C05002000487047B482000800F096B922
:10518000002200F0EAB900F09BB9000030B59DB0F4
:105190000C46054600F034F9FCB1F0B17422104918
:1051A0006846FBF74DF800F009FA049000F00EFA9B
:1051B000059000F01BF9099000F036F90A90694655
:1051C000284600F0B5F8002805D07422694620462C
:1051D000FBF736F801201DB030BD0020FBE70000D2
:1051E0004082000870B50E4600F078F9041E09D020
:1051F000314601F0B7FB054606F11801204601F0E3
:1052000085FB284070BD000070B500F0F9F8002360
:10521000002806D084681CB1164A2168914201D04A
:10522000002070BD016D99B1C3EBC305626A03F143
:10523000010312EBC50205D015684D60526842F0BB
:1052400001020A61CA688A4202D00AB11146EBE73C
:10525000616800258160216A204631B1FDF719F8A7
:10526000206A00F0EBF92562F5E700F0E7F901208C
:1052700070BD00000101C0A170B50D4600F0C0F87E
:1052800004000BD055B1A068016A39B11822284634
:10529000FAF7D6FF60686860012070BD002070BD1D
:1052A00070B50E4600F0ACF804004FF000051ED0BB
:1052B000206D30B1C1686D1C814202D009B1084631
:1052C000F8E7A5B1C5EBC500402101EBC00000F037
:1052D000AAF900280CD01449002201604EB171686F
:1052E0008162B168C162F1680163317805E0002034
:1052F00070BD8262C262012102638160A168416067
:10530000C0E90324C0E9052500F14001C261C0E9FC
:105310000821A0602046FCF71BFF211D2046BDE8A8
:10532000704000F034BA00000101C0A100F015B9CE
:1053300070B50C4600F064F805000DD064B1002093
:10534000E066286D50B1E16E491CE166C16881429A
:1053500004D019B10846F6E7002070BDE06E80B1B8
:10536000B5F8480000B1E86C04F13401FCF7DAFC50
:10537000208648B1B5F84800012808D9E86C0C30FF
:1053800006E0182211212AE01822122127E000202D
:1053900004F13801FCF7C6FC6086F0B1686820674C
:1053A000182205F1300104F13C00FAF749FF1822F8
:1053B00005F1180104F15400FAF742FFFBF76CFA0B
:1053C0000948206100F002F9606100F00FF86062A6
:1053D00000F02AF8A062012070BD1822132128468F
:1053E00000F0E6F8B8E70000C8550008034810B51B
:1053F0000469FBF751FA204610BD0000D0420608B0
:1054000010B518B1044A0168914200D0002004464A
:10541000FBF742FA204610BD0001C0A1014901601E
:10542000704700000001C0A1034810B54469FBF7B4
:1054300033FA204610BD0000D04206082DE9F8439B
:105440000546DDE9081091461A0642EA01414FF08F
:10545000000841EA00274446FBF71EFA0F4E65B1EB
:105460000F49C9F80010C5F8009000F0DAF838B11B
:105470000C48874206D974680CE0F069BDE8F883EF
:10548000346807E008A0006800906846FEF7F8FF5F
:1054900010B9B468C5F800802046EFE7D04206088E
:1054A0000001C0A1000003010384048410B5044678
:1054B000FFF7A6FF08B1002010BD204610BD000078
:1054C00010B5FFF79DFF20B1BDE81040103000F08F
:1054D000A2B80148806910BDD042060870B50C46DC
:1054E000FFF78EFF050004D02CB12169A06A28B116
:1054F0000CE0002070BD1122102111E0208CE28B05
:105500005043626A504301D0132207E059B9208901
:10551000E1884843E168484305D01222102128461B
:1055200000F046F8E5E71822214605F11800FAF7E1
:1055300087FE182204F1180105F13000FAF780FE09
:105540000320E860286D30B18560C168814202D0D7
:1055500009B10846F8E7284670BD70B515460E46F5
:10556000FFF74EFF04462A463146FDF7FFF80028B4
:105570001DD0B4F8480008B1E56C00E00025012812
:1055800002D9E66C0C360DE000260BE02846FDF74C
:1055900010FA2046FFF7D2FC3046FDF73EFAE08ACB
:1055A000401CE082E08AA18A8842EFD380B270BDBD
:1055B000002802D0103000F071B8704710B5FBF72A
:1055C0006BF901A010BD000000000000034810B5F9
:1055D000C468FBF761F9204610BD0000D042060800
:1055E00002460068010A012004E05368491E53F88E
:1055F000213058430029F8D1704710B543689C18F2
:10560000446031B1002002E01C5C0C54401C90420C
:10561000FAD3012010BD0022016802700260084622
:1056200070470120704710B5002806D0001DFCF718
:1056300027FB002801D00060001D10BD002801D00C
:1056400000F001B8704710B5044600F009F828B121
:1056500000210160FCF7F2F9002010BD204610BDCA
:105660000100A1F1040002D00168814200D00020B5
:10567000704718B1806903C8FEF76EBE01207047FD
:1056800010B180698068704709B188687047002050
:105690007047002801D0406980687047037813F094
:1056A000FF0F01D0002070470170016862F31F21D5
:1056B000016001207047000070B50D46040008D05D
:1056C00008480026017811B1067000F00FF81DB9E6
:1056D00001E0002070BD04A5A660C4E900560120C9
:1056E00070BD00001C090020000000007047002869
:1056F00003D00021816041600120704710B5040093
:1057000004D000F012F86060012010BD002010BD30
:1057100010B5040007D000F008F86168401AA168CD
:105720000844A06010BD002010BD0020704700009C
:1057300070B54B08002211464FF4B47517E000BF56
:1057400030F8026B241D324430F8026B11443244AD
:1057500030F8046B1144324430F8026C1144324486
:105760001144AC42ECD392B289B2A3F5B473AB420C
:105770004FF00004E4D204E030F8025B641C2A44D9
:1057800011449C42F8D390B240EA014070BD2DE92B
:10579000F0410D4606001AD0CDB1002102F09FFC69
:1057A0000746002028603846FFF73DFF04000ED072
:1057B0000146304602F093FC39462046FFF7B8FF19
:1057C00028602046FFF73AFF0120BDE8F081002065
:1057D000FBE7000038B5084C2068C00402D407A0DD
:1057E000FCF7F8F8206840F480502060206800F44E
:1057F0008050009038BD000030380240573A2043B6
:10580000524320495020636C6F636B206973204EB4
:105810004F5420656E61626C65640D0A00000000E3
:10582000F0B514698DB015460646271DF4B1206801
:10583000E0B1022920D00A2000906B4609AA304628
:1058400002F00AFC00280FD009A901A8009A02F072
:105850009DF901AE96E80F0005AE86E80F002368BB
:1058600069683A4605A898470DB0F0BD0DB03046BE
:10587000BDE8F04002F05CBA6946304602F09CF99F
:105880000028F1D0236869683A466846984750B1C5
:1058900002980028F6D16946304601F054FA0028F3
:1058A000E2D00120E0E7F06800B902A0F06000203B
:1058B000DAE7000063616C6C6261636B20666169AA
:1058C0006C65640053689B7813F0C00306D0402BCE
:1058D00009D0C168802B03D041B906E000F01EB8A2
:1058E00021B904A102E0FFF79BBF07A1C16000201E
:1058F000704700006E6F206D616C6C6F6320737574
:1059000070706F7274000000696E76616C6964205B
:105910006669656C64207479706500002DE9FF414B
:105920000B4651680546144688783F4E00F00F023A
:1059300010F0300056F8226009D0102809D0202835
:1059400010D0302858D0E868002869D167E0226973
:105950004CE0D4E90410884201D001210170226991
:10596000616843E0022B32D1042A30D84FF001089D
:1059700069462846676902F01FF9002822D00AE02C
:10598000B1F80730226903FB00226846B04768B1CE
:105990003888401C3880029868B161683888B1F84E
:1059A00009209042ECD3E868C0BB0EE002984FF0AB
:1059B00000080028F7D16946284601F0C4F90028FC
:1059C00000D0404604B0BDE8F08118A028E0D4E93A
:1059D0000432B1F80710108801FB0033411C11801C
:1059E0006168B1F809209042DDD21A4604B0284619
:1059F000B446BDE8F041604708886169072A08801D
:105A0000ADD16068B0F807102069FAF732FC606821
:105A10002169D0F80B0002F0FBF8A0E700E007A036
:105A2000E8600020CEE70000183E0608617272614F
:105A300079206F766572666C6F770000696E7661AB
:105A40006C6964206669656C642074797065000017
:105A500040F24642A0F24641904225D012DC40F28C
:105A60003142A0F23141904220D006DCA0F58060A6
:105A7000153821D00D2811D112E0042918D007299A
:105A80000CD10FE01C2915D004DC03291AD00A29F7
:105A900004D119E02A2911D02C2911D00BA070476C
:105AA0000CA070470FA0704712A0704715A0704758
:105AB00018A070471AA070471CA070471EA070471E
:105AC00020A0704723A0704725A07047554E4B4E2D
:105AD0004F574E0053544D33324633303378422FB4
