:020000040800F2
:1000000000000220F5150008C9060008D9060008FE
:10001000E1060008E9060008F106000800000000FB
:10002000000000000000000000000000F9060008C9
:100030000907000800000000190700082907000848
:100040004516000845160008451600084516000824
:100050004516000845160008451600084516000814
:100060004516000845160008451600084516000804
:1000700045160008451600084516000845160008F4
:1000800045160008451600084516000845160008E4
:1000900045160008451600084516000845160008D4
:1000A00045160008451600084516000845160008C4
:1000B00045160008451600084516000845160008B4
:1000C00045160008451600084516000845160008A4
:1000D0004516000845160008451600084516000894
:1000E0004516000845160008451600084516000884
:1000F0004516000845160008451600084516000874
:100100004516000845160008451600084516000863
:100110004516000845160008451600084516000853
:100120004516000845160008451600084516000843
:100130004516000845160008451600084516000833
:100140004516000845160008451600084516000823
:100150004516000845160008451600084516000813
:100160004516000845160008451600084516000803
:100170004516000845160008451600080000000056
:080180004516000845160008B1
:1001880010B5054C237833B9044B13B10448AFF3C9
:1001980000800123237010BD0C0000200000000027
:1001A800A4160008084B10B51BB108490848AFF35E
:1001B80000800848036803B910BD074B002BFBD02B
:1001C800BDE81040184700BF0000000010000020E4
:1001D800A41600080C0000200000000053B94AB91A
:1001E800002908BF00281CBF4FF0FF314FF0FF3037
:1001F80000F07EB9ADF1080C6DE904CE00F006F808
:10020800DDF804E0DDE9022304B070472DE9F0478A
:100218008C460E460446089D002B50D18A4217464C
:100228006CD9B2FA82FEBEF1000F0BD0CEF12004D9
:1002380020FA04F401FA0EF644EA060C02FA0EF764
:1002480000FA0EF44FEA1749220CBCFBF9F01FFA2A
:1002580087F809FB10C642EA064600FB08F3B342DA
:1002680009D9F61900F1FF3280F02281B34240F239
:100278001F8102383E44F61AA2B2B6FBF9F309FB15
:10028800136642EA064403FB08F8A04509D9E419B5
:1002980003F1FF3280F00A81A04540F20781023B5A
:1002A8003C44C8EB040443EA00400021002D62D01E
:1002B80024FA0EF400232C606B60BDE8F0878B42B3
:1002C80007D9002D55D0002185E841000846BDE832
:1002D800F087B3FA83F1002940F09080B34202D34B
:1002E800824200F2F880841A66EB03060120B446C5
:1002F800002D40D085E81010BDE8F08712B901271D
:10030800B7FBF2F7B7FA87FEBEF1000F35D1F31B42
:100318004FEA17481FFA87FC0121B3FBF8F0220CBB
:1003280008FB103642EA06460CFB00F3B34207D935
:10033800F61900F1FF3202D2B34200F2CE80104625
:10034800F61AA2B2B6FBF8F308FB136642EA0644B3
:100358000CFB03FCA44507D9E41903F1FF3202D2D0
:10036800A44500F2B5801346CCEB040443EA0040F0
:100378009CE729462846BDE8F087CEF1200106FA19
:100388000EF307FA0EF720FA01F94FEA1748CE40A4
:1003980049EA0309B6FBF8FA4FEA194408FB1A665A
:1003A8001FFA87FC44EA06430AFB0CF29A4200FA59
:1003B8000EF40AD9DB190AF1FF3180F087809A42DE
:1003C80040F28480AAF1020A3B449B1A1FFA89F979
:1003D800B3FBF8F108FB113349EA034301FB0CF6C0
:1003E8009E4207D9DB1901F1FF326BD29E4269D9CF
:1003F80002393B449B1B41EA0A418EE7C1F1200EBA
:1004080022FA0EF48B40234320FA0EF706FA01F481
:100418004FEA134C26FA0EF63C43B6FBFCF9270CC0
:100428000CFB19661FFA83F847EA064609FB08F72A
:10043800B74202FA01F200FA01FA08D9F61809F1EE
:10044800FF3041D2B7423FD9A9F102091E44F61B39
:10045800A0B2B6FBFCF40CFB146640EA064704FBAA
:1004680008F8B84507D9FF1804F1FF3028D2B84575
:1004780026D9023C1F4444EA0940C8EB0707A0FB01
:1004880002894F4544464E4614D329D065B3BAEB8A
:10049800040367EB060707FA0EFECB40CF404EEA8F
:1004A800030385E888000021BDE8F0871346F8E6D5
:1004B8001046E0E6B8EB020469EB03060138E5E70D
:1004C8000446D8E7114695E78146C0E78A467CE7A7
:1004D800023B3C4448E708460AE702383E442FE717
:1004E800C245E7D33E46D1E72946BDE8F08700BFBD
:1004F800704700BF80B582B000AF00237B6000F07A
:10050800CDFF00F027F800F08FF800237B6002E0B1
:100518007B6801337B607B680C4A9342F8D90022E0
:100528004FF400710A4800F0BBFE00237B6002E034
:100538007B6801337B607B68044A9342F8D90122C7
:100548004FF40071024800F0ABFEDEE73F420F00B7
:100558000018024080B594B000AF07F120033022A4
:100568000021184601F092F807F10C0300221A60E6
:100578005A609A60DA601A610023BB60284A284BE7
:100588001B6C43F080531364254B1B6C03F08053A2
:10059800BB60BB6800237B60224A224B1B6843F484
:1005A800804313601F4B1B6803F480437B607B68A8
:1005B80002233B620123FB6210233B630223BB63DC
:1005C8000023FB6308233B64A8237B640223BB64EA
:1005D8000423FB6407F12003184600F0CFF8034614
:1005E800002B01D000F064F80F23FB6002233B616D
:1005F80000237B614FF4A053BB614FF48053FB6130
:1006080007F10C030521184600F0F8FA0346002B01
:1006180001D000F04DF800BF5037BD4680BD00BF87
:10062800003802400070004080B588B000AF07F184
:100638000C0300221A605A609A60DA601A6100237B
:10064800BB60194A184B1B6B43F080031363164BAE
:100658001B6B03F08003BB60BB6800237B60124AFE
:10066800114B1B6B43F0400313630F4B1B6B03F0E1
:1006780040037B607B6800224FF400710B4800F058
:100688000FFE4FF40073FB6001233B6101237B6184
:100698000323BB6107F10C031946044800F066FC0C
:1006A80000BF2037BD4680BD003802400018024018
:1006B80080B400AF00BFBD465DF8047B704700BF43
:1006C80080B400AF00BFBD465DF8047B704700BF33
:1006D80080B400AFFEE700BF80B400AFFEE700BF04
:1006E80080B400AFFEE700BF80B400AFFEE700BFF4
:1006F80080B400AF00BFBD465DF8047B704700BF03
:1007080080B400AF00BFBD465DF8047B704700BFF2
:1007180080B400AF00BFBD465DF8047B704700BFE2
:1007280080B500AF00F00CFF00BF80BD80B483B07F
:1007380000AF00237B60104A0F4B5B6C43F480438F
:1007480053640D4B5B6C03F480437B607B68002330
:100758003B60094A084B1B6C43F080531364064BFB
:100768001B6C03F080533B603B6800BF0C37BD46F1
:100778005DF8047B704700BF0038024080B586B042
:1007880000AF78607B68002B01D101232CE27B68E5
:100798001B6803F00103002B74D0A74B9B6803F080
:1007A8000C03042B0BD0A44B9B6803F00C03082B01
:1007B80011D1A14B5B6803F48003002B0BD09E4B37
:1007C8001B6803F40033002B5BD07B685B68002B4D
:1007D80057D1012308E27B685B68B3F5803F06D1F7
:1007E800954A954B1B6843F4803313601DE07B6882
:1007F8005B68B3F5A02F0CD18F4A8F4B1B6843F46D
:10080800802313608C4A8C4B1B6843F4803313603D
:100818000BE0894A884B1B6823F480331360864AAF
:10082800854B1B6823F4802313607B685B68002B6F
:1008380013D000F099FE386108E000F095FE0246FA
:100848003B69D31A642B01D90323CDE17A4B1B688A
:1008580003F40033002BF0D014E000F085FE38617B
:1008680008E000F081FE02463B69D31A642B01D9E7
:100878000323B9E1704B1B6803F40033002BF0D15C
:1008880000E000BF7B681B6803F00203002B63D005
:10089800694B9B6803F00C03002B0BD0664B9B68DD
:1008A80003F00C03082B1CD1634B5B6803F4800333
:1008B800002B16D1604B1B6803F00203002B05D0F8
:1008C8007B68DB68012B01D001238DE15A495A4B23
:1008D8001B6823F0F8027B681B69DB0013430B607D
:1008E8003AE07B68DB68002B20D0544B01221A6069
:1008F80000F03AFE386108E000F036FE02463B6937
:10090800D31A022B01D903236EE14B4B1B6803F06A
:100918000203002BF0D04849474B1B6823F0F8022C
:100928007B681B69DB0013430B6015E0434B002217
:100938001A6000F019FE386108E000F015FE024662
:100948003B69D31A022B01D903234DE13A4B1B68AB
:1009580003F00203002BF0D17B681B6803F0080347
:10096800002B30D07B685B69002B16D0344B0122FA
:100978001A6000F0F9FD386108E000F0F5FD024664
:100988003B69D31A022B01D903232DE12A4B5B6F54
:1009980003F00203002BF0D015E0294B00221A6067
:1009A80000F0E2FD386108E000F0DEFD02463B6938
:1009B800D31A022B01D9032316E11F4B5B6F03F0F7
:1009C8000203002BF0D17B681B6803F00403002BA3
:1009D80000F0A0800023FB75174B1B6C03F08053BD
:1009E800002B0FD10023FB60134A134B1B6C43F001
:1009F80080531364104B1B6C03F08053FB60FB683F
:100A08000123FB750F4B1B6803F48073002B21D166
:100A18000C4A0C4B1B6843F48073136000F0A4FD70
:100A2800386111E000F0A0FD02463B69D31A022BA1
:100A38000AD90323D8E000BF00380240000047422B
:100A4800800E474200700040694B1B6803F48073B6
:100A5800002BE7D07B689B68012B06D1654A654B64
:100A68001B6F43F0010313671CE07B689B68052B31
:100A78000CD1604A5F4B1B6F43F0040313675D4A58
:100A88005C4B1B6F43F0010313670BE0594A594B4A
:100A98001B6F23F001031367564A564B1B6F23F055
:100AA800040313677B689B68002B15D000F05CFD7E
:100AB80038610AE000F058FD02463B69D31A41F25A
:100AC8008832934201D903238EE04A4B1B6F03F00F
:100AD8000203002BEED014E000F046FD38610AE076
:100AE80000F042FD02463B69D31A41F28832934234
:100AF80001D9032378E03F4B1B6F03F00203002B5F
:100B0800EED1FB7D012B05D13A4A3A4B1B6C23F001
:100B1800805313647B689B69002B64D0354B9B68BA
:100B280003F00C03082B5CD07B689B69022B41D136
:100B3800314B00221A6000F017FD386108E000F020
:100B480013FD02463B69D31A022B01D903234BE05C
:100B5800284B1B6803F00073002BF0D125497B68F4
:100B6800DA697B681B6A1A437B685B6A9B011A43D4
:100B78007B689B6A5B08013B1B041A437B68DB6A42
:100B88001B0613434B601C4B01221A6000F0ECFC5F
:100B9800386108E000F0E8FC02463B69D31A022BF2
:100BA80001D9032320E0134B1B6803F00073002BCB
:100BB800F0D018E0104B00221A6000F0D5FC386124
:100BC80008E000F0D1FC02463B69D31A022B01D998
:100BD800032309E0074B1B6803F00073002BF0D1D7
:100BE80001E0012300E0002318461837BD4680BD08
:100BF80000700040003802406000474280B584B071
:100C080000AF786039607B68002B01D10123CAE00E
:100C1800674B1B6803F00F023B689A420CD2644B87
:100C28003A68D2B21A70624B1B6803F00F023B6835
:100C38009A4201D00123B6E07B681B6803F00203E7
:100C4800002B20D07B681B6803F00403002B05D021
:100C5800584A584B9B6843F4E05393607B681B6881
:100C680003F00803002B05D0524A524B9B6843F40B
:100C7800604393604F494F4B9B6823F0F0027B68B9
:100C88009B6813438B607B681B6803F00103002B90
:100C980044D07B685B68012B07D1464B1B6803F483
:100CA8000033002B19D101237DE07B685B68022BA0
:100CB80003D07B685B68032B07D13E4B1B6803F0AE
:100CC8000073002B09D101236DE03A4B1B6803F038
:100CD8000203002B01D1012365E03649354B9B689F
:100CE80023F003027B685B6813438B6000F03CFCD5
:100CF800F8600AE000F038FC0246FB68D31A41F2BB
:100D08008832934201D903234DE02A4B9B6803F0B4
:100D18000C027B685B689B009A42EBD1244B1B68F2
:100D280003F00F023B689A420CD9214B3A68D2B2C1
:100D38001A701F4B1B6803F00F023B689A4201D0E0
:100D4800012330E07B681B6803F00403002B08D004
:100D58001849184B9B6823F4E0527B68DB681343FF
:100D68008B607B681B6803F00803002B09D01149CE
:100D7800104B9B6823F460427B681B69DB001343BC
:100D88008B6000F01DF801460A4B9B6803F0F003E6
:100D98001B09094AD35C21FA03F3084A13600020AF
:100DA80000F09EFB002318461037BD4680BD00BFEB
:100DB800003C024000380240BC1600080800002031
:100DC8002DE9F04F8FB000AF0023FB6200237B6357
:100DD8000023BB6200233B63614B9B6803F00C0359
:100DE800042B07D0082B08D0002B40F0AF805D4BB8
:100DF8003B63AEE05C4B3B63ABE0594B5B6803F095
:100E08003F03FB62564B5B6803F48003002B4DD015
:100E1800534B5A6847F6C07313409B0919464FF065
:100E280000020B461446E0007862786A40EA537084
:100E38007862DB003B62D7E908346001F861F86941
:100E480040EAD360F8615801B861D7E90656ED1A4F
:100E580066EB040633464FEA83192B4649EA936941
:100E68002B464FEA8318B8EB050569EB0606A8463A
:100E7800B14618EB010849EB02094FEA49237B61A7
:100E88007B6943EAD8537B614FEA48233B61D7E942
:100E9800048940464946FB6A4FF000041A46234637
:100EA800FFF79CF903460C467B6341E02C4B5A68DC
:100EB80047F6C07313409B0919464FF000020B46D2
:100EC8001446E000F860F86840EA5370F860DB0008
:100ED800BB60D7E902344FEA441B4BEAD36B4FEAB5
:100EE800431ABAEB030A6BEB040B4FEA8B1646EA7C
:100EF8009A664FEA8A15B5EB0A0566EB0B066D187C
:100F080046EB0206B3027B607B6843EA95537B603D
:100F1800AB023B60D7E9005628463146FB6A4FF0E2
:100F280000041A462346FFF759F903460C467B632B
:100F38000B4B5B6803F440331B0C01335B00BB6253
:100F48007A6BBB6AB2FBF3F33B6302E0054B3B638E
:100F580000BF3B6B18463C37BD46BDE8F08F00BF6D
:100F6800003802400024F40000127A0080B489B0EE
:100F780000AF7860396000237B6100233B61002368
:100F8800BB610023FB616BE10122FB6902FA03F3F9
:100F98007B613B681A687B6913403B613A697B69EE
:100FA8009A4240F05A813B685B68022B03D03B6849
:100FB8005B68122B23D1FB69DA087B68083253F887
:100FC8002230BB61FB6903F007039B000F2202FA82
:100FD80003F3DB43BA691340BB613B681A69FB69D9
:100FE80003F007039B0002FA03F3BA691343BB61DA
:100FF800FB69DA087B680832B96943F822107B6814
:101008001B68BB61FB695B00032202FA03F3DB4345
:10101800BA691340BB613B685B6803F00302FB6974
:101028005B0002FA03F3BA691343BB617B68BA69D0
:101038001A603B685B68012B0BD03B685B68022B2E
:1010480007D03B685B68112B03D03B685B68122BA9
:1010580030D17B689B68BB61FB695B00032202FAA5
:1010680003F3DB43BA691340BB613B68DA68FB6989
:101078005B0002FA03F3BA691343BB617B68BA6980
:101088009A607B685B68BB610122FB6902FA03F323
:10109800DB43BA691340BB613B685B681B0903F01B
:1010A8000102FB6902FA03F3BA691343BB617B6867
:1010B800BA695A607B68DB68BB61FB695B00032225
:1010C80002FA03F3DB43BA691340BB613B689A68D1
:1010D800FB695B0002FA03F3BA691343BB617B68DF
:1010E800BA69DA603B685B6803F08053002B00F054
:1010F800B4800023FB605F4A5E4B5B6C43F4804323
:1011080053645C4B5B6C03F48043FB60FB685A4A96
:10111800FB699B08023352F82330BB61FB6903F07B
:1011280003039B000F2202FA03F3DB43BA6913405F
:10113800BB617B68514A93422BD07B68504A9342EB
:1011480025D07B684F4A93421FD07B684E4A934212
:1011580019D07B684D4A934213D07B684C4A93421E
:101168000DD07B684B4A934207D07B684A4A93422A
:1011780001D107230EE008230CE006230AE005232B
:1011880008E0042306E0032304E0022302E001232D
:1011980000E00023FA6902F0030292009340BA6962
:1011A8001343BB613449FB699B080233BA6941F8B0
:1011B80023203A4B1B68BB613B69DB43BA69134088
:1011C800BB613B685B6803F48033002B03D0BA69CA
:1011D8003B691343BB61314ABB6913602F4B5B68A2
:1011E800BB613B69DB43BA691340BB613B685B6821
:1011F80003F40033002B03D0BA693B691343BB6186
:10120800264ABB695360254B9B68BB613B69DB433E
:10121800BA691340BB613B685B6803F48013002B19
:1012280003D0BA693B691343BB611C4ABB6993602D
:101238001A4BDB68BB613B69DB43BA691340BB618E
:101248003B685B6803F40013002B03D0BA693B6961
:101258001343BB61114ABB69D360FB690133FB616E
:10126800FB690F2B7FF690AE00BF2437BD465DF8B3
:10127800047B7047003802400038014000000240FB
:101288000004024000080240000C02400010024026
:101298000014024000180240001C0240003C0140BB
:1012A80080B483B000AF78600B467B8013467B70B8
:1012B8007B78002B03D07A887B689A6103E07B886F
:1012C8001A047B689A6100BF0C37BD465DF8047B41
:1012D800704700BF80B485B000AF78607B6803F0CA
:1012E8000703FB600C4BDB68BB60BA684FF6FF0373
:1012F8001340BB60FB681A02BB68134343F0BF632B
:1013080043F40033BB60044ABB68D36000BF1437A2
:10131800BD465DF8047B704700ED00E080B400AF87
:10132800044BDB6803F4E0631B0A1846BD465DF80E
:10133800047B704700ED00E080B483B000AF034643
:101348003960FB7197F90730002B0ADB0D4997F9D3
:1013580007303A68D2B21201D2B20B4483F80023A4
:101368000AE00949FB7903F00F03043B3A68D2B25B
:101378001201D2B20B441A7600BF0C37BD465DF895
:10138800047B704700E100E000ED00E080B489B024
:1013980000AFF860B9607A60FB6803F00703FB618F
:1013A800FB69C3F10703042B28BF0423BB61FB6956
:1013B8000433062B02D9FB69033B00E000237B6161
:1013C8000122BB6902FA03F35A1EBB681A407B6903
:1013D8009A4001217B6901FA03F3591E7B680B408F
:1013E800134318462437BD465DF8047B704700BF99
:1013F80080B582B000AF78607B68013BB3F1807F35
:1014080001D301230FE00A4A7B68013B53600F2197
:101418004FF0FF30FFF790FF054B00229A60044B16
:1014280007221A60002318460837BD4680BD00BF52
:1014380010E000E080B582B000AF78607868FFF710
:1014480049FF00BF0837BD4680BD00BF80B586B0E4
:1014580000AF0346B9607A60FB7300237B61FFF736
:101468005DFF78617A68B9687869FFF78FFF02468F
:1014780097F90F3011461846FFF75EFF00BF18377F
:10148800BD4680BD80B582B000AF78607868FFF750
:10149800AFFF034618460837BD4680BD80B500AF8C
:1014A8000E4A0E4B1B6843F4007313600B4A0B4B38
:1014B8001B6843F480631360084A084B1B6843F4B5
:1014C800807313600320FFF7B5FF002000F008F8D1
:1014D800FFF72CF90023184680BD00BF003C0240EE
:1014E80080B582B000AF7860124B1A68124B1B7837
:1014F80019464FF47A73B3FBF1F3B2FBF3F31846D2
:10150800FFF7C0FF0346002B01D001230EE07B68E4
:101518000F2B0AD8002279684FF0FF30FFF796FFAB
:10152800064A7B681360002300E001231846083749
:10153800BD4680BD080000200400002000000020F7
:1015480080B400AF064B1B781A46064B1B68134441
:10155800044A136000BFBD465DF8047B704700BFB6
:10156800040000202800002080B400AF034B1B6853
:101578001846BD465DF8047B704700BF2800002070
:1015880080B400AF164A164BD3F8883043F4700382
:10159800C2F88830134A134B1B6843F001031360E9
:1015A800104B00229A600F4A0E4B1B6823F084737D
:1015B80023F4803313600B4B0B4A5A60094A094BDA
:1015C8001B6823F480231360064B0022DA60044B67
:1015D8004FF000629A6000BFBD465DF8047B70471B
:1015E80000ED00E00038024010300024DFF834D06D
:1015F800002103E00C4B5B58435004310B480C4B63
:1016080042189A42F6D30B4A02E0002342F8043B00
:10161800094B9A42F9D3FFF7B3FF00F011F8FEF730
:1016280069FF704700000220DC1600080000002057
:101638000C0000200C0000202C000020FEE7000019
:1016480070B50E4B0E4CE41AA41000251E46A54298
:1016580004D056F8253098470135F8E700F01EF811
:10166800084C094BE41AA41000251E46A54204D0D4
:1016780056F8253098470135F8E770BDD4160008AC
:10168800D4160008D8160008D416000802440346E9
:10169800934202D003F8011BFAE77047F8B500BF80
:1016A800F8BC08BC9E467047F8B500BFF8BC08BC3B
:0416B8009E46704793
:1016BC0000000000000000000102030406070809F6
:0816CC0048EBFF7F0100000064
:0416D400AD0100085C
:0416D800890100087C
:0C16DC0010000000010000000024F400D9
:04000005080015F5E5
:00000001FF
